{"contracts/NXTSecurityToken.sol":{"NXTSecurityToken":{"abi":[{"inputs":[{"internalType":"string","name":"_name","type":"string"},{"internalType":"string","name":"_symbol","type":"string"},{"internalType":"uint256","name":"_maxSupply","type":"uint256"},{"internalType":"string","name":"_assetId","type":"string"},{"internalType":"string","name":"_assetType","type":"string"},{"internalType":"string","name":"_jurisdiction","type":"string"},{"internalType":"address","name":"_admin","type":"address"}],"stateMutability":"nonpayable","type":"constructor"},{"inputs":[],"name":"AccessControlBadConfirmation","type":"error"},{"inputs":[{"internalType":"address","name":"account","type":"address"},{"internalType":"bytes32","name":"neededRole","type":"bytes32"}],"name":"AccessControlUnauthorizedAccount","type":"error"},{"inputs":[{"internalType":"address","name":"spender","type":"address"},{"internalType":"uint256","name":"allowance","type":"uint256"},{"internalType":"uint256","name":"needed","type":"uint256"}],"name":"ERC20InsufficientAllowance","type":"error"},{"inputs":[{"internalType":"address","name":"sender","type":"address"},{"internalType":"uint256","name":"balance","type":"uint256"},{"internalType":"uint256","name":"needed","type":"uint256"}],"name":"ERC20InsufficientBalance","type":"error"},{"inputs":[{"internalType":"address","name":"approver","type":"address"}],"name":"ERC20InvalidApprover","type":"error"},{"inputs":[{"internalType":"address","name":"receiver","type":"address"}],"name":"ERC20InvalidReceiver","type":"error"},{"inputs":[{"internalType":"address","name":"sender","type":"address"}],"name":"ERC20InvalidSender","type":"error"},{"inputs":[{"internalType":"address","name":"spender","type":"address"}],"name":"ERC20InvalidSpender","type":"error"},{"inputs":[],"name":"EnforcedPause","type":"error"},{"inputs":[],"name":"ExpectedPause","type":"error"},{"anonymous":false,"inputs":[{"indexed":true,"internalType":"address","name":"owner","type":"address"},{"indexed":true,"internalType":"address","name":"spender","type":"address"},{"indexed":false,"internalType":"uint256","name":"value","type":"uint256"}],"name":"Approval","type":"event"},{"anonymous":false,"inputs":[{"indexed":true,"internalType":"address","name":"from","type":"address"},{"indexed":true,"internalType":"address","name":"to","type":"address"},{"indexed":false,"internalType":"bool","name":"passed","type":"bool"},{"indexed":false,"internalType":"string","name":"reason","type":"string"}],"name":"ComplianceCheck","type":"event"},{"anonymous":false,"inputs":[{"indexed":true,"internalType":"address","name":"from","type":"address"},{"indexed":true,"internalType":"address","name":"to","type":"address"},{"indexed":false,"internalType":"uint256","name":"amount","type":"uint256"},{"indexed":false,"internalType":"string","name":"reason","type":"string"}],"name":"ForcedTransfer","type":"event"},{"anonymous":false,"inputs":[{"indexed":true,"internalType":"address","name":"account","type":"address"},{"indexed":false,"internalType":"bool","name":"status","type":"bool"}],"name":"Frozen","type":"event"},{"anonymous":false,"inputs":[{"indexed":false,"internalType":"address","name":"account","type":"address"}],"name":"Paused","type":"event"},{"anonymous":false,"inputs":[{"indexed":true,"internalType":"bytes32","name":"role","type":"bytes32"},{"indexed":true,"internalType":"bytes32","name":"previousAdminRole","type":"bytes32"},{"indexed":true,"internalType":"bytes32","name":"newAdminRole","type":"bytes32"}],"name":"RoleAdminChanged","type":"event"},{"anonymous":false,"inputs":[{"indexed":true,"internalType":"bytes32","name":"role","type":"bytes32"},{"indexed":true,"internalType":"address","name":"account","type":"address"},{"indexed":true,"internalType":"address","name":"sender","type":"address"}],"name":"RoleGranted","type":"event"},{"anonymous":false,"inputs":[{"indexed":true,"internalType":"bytes32","name":"role","type":"bytes32"},{"indexed":true,"internalType":"address","name":"account","type":"address"},{"indexed":true,"internalType":"address","name":"sender","type":"address"}],"name":"RoleRevoked","type":"event"},{"anonymous":false,"inputs":[{"indexed":true,"internalType":"address","name":"from","type":"address"},{"indexed":true,"internalType":"address","name":"to","type":"address"},{"indexed":false,"internalType":"uint256","name":"value","type":"uint256"}],"name":"Transfer","type":"event"},{"anonymous":false,"inputs":[{"indexed":false,"internalType":"address","name":"account","type":"address"}],"name":"Unpaused","type":"event"},{"anonymous":false,"inputs":[{"indexed":true,"internalType":"address","name":"account","type":"address"},{"indexed":false,"internalType":"bool","name":"status","type":"bool"}],"name":"Whitelisted","type":"event"},{"inputs":[],"name":"ADMIN_ROLE","outputs":[{"internalType":"bytes32","name":"","type":"bytes32"}],"stateMutability":"view","type":"function"},{"inputs":[],"name":"COMPLIANCE_ROLE","outputs":[{"internalType":"bytes32","name":"","type":"bytes32"}],"stateMutability":"view","type":"function"},{"inputs":[],"name":"DEFAULT_ADMIN_ROLE","outputs":[{"internalType":"bytes32","name":"","type":"bytes32"}],"stateMutability":"view","type":"function"},{"inputs":[],"name":"MINTER_ROLE","outputs":[{"internalType":"bytes32","name":"","type":"bytes32"}],"stateMutability":"view","type":"function"},{"inputs":[{"internalType":"address","name":"owner","type":"address"},{"internalType":"address","name":"spender","type":"address"}],"name":"allowance","outputs":[{"internalType":"uint256","name":"","type":"uint256"}],"stateMutability":"view","type":"function"},{"inputs":[{"internalType":"address","name":"spender","type":"address"},{"internalType":"uint256","name":"value","type":"uint256"}],"name":"approve","outputs":[{"internalType":"bool","name":"","type":"bool"}],"stateMutability":"nonpayable","type":"function"},{"inputs":[],"name":"assetId","outputs":[{"internalType":"string","name":"","type":"string"}],"stateMutability":"view","type":"function"},{"inputs":[],"name":"assetType","outputs":[{"internalType":"string","name":"","type":"string"}],"stateMutability":"view","type":"function"},{"inputs":[{"internalType":"address","name":"account","type":"address"}],"name":"balanceOf","outputs":[{"internalType":"uint256","name":"","type":"uint256"}],"stateMutability":"view","type":"function"},{"inputs":[{"internalType":"address[]","name":"recipients","type":"address[]"},{"internalType":"uint256[]","name":"amounts","type":"uint256[]"}],"name":"batchMint","outputs":[],"stateMutability":"nonpayable","type":"function"},{"inputs":[{"internalType":"address[]","name":"accounts","type":"address[]"},{"internalType":"bool","name":"status","type":"bool"}],"name":"batchWhitelist","outputs":[],"stateMutability":"nonpayable","type":"function"},{"inputs":[{"internalType":"uint256","name":"amount","type":"uint256"}],"name":"burn","outputs":[],"stateMutability":"nonpayable","type":"function"},{"inputs":[{"internalType":"address","name":"account","type":"address"},{"internalType":"uint256","name":"amount","type":"uint256"}],"name":"burnFrom","outputs":[],"stateMutability":"nonpayable","type":"function"},{"inputs":[],"name":"decimals","outputs":[{"internalType":"uint8","name":"","type":"uint8"}],"stateMutability":"view","type":"function"},{"inputs":[{"internalType":"address","name":"from","type":"address"},{"internalType":"address","name":"to","type":"address"},{"internalType":"uint256","name":"amount","type":"uint256"},{"internalType":"string","name":"reason","type":"string"}],"name":"forcedTransfer","outputs":[],"stateMutability":"nonpayable","type":"function"},{"inputs":[{"internalType":"address","name":"","type":"address"}],"name":"frozen","outputs":[{"internalType":"bool","name":"","type":"bool"}],"stateMutability":"view","type":"function"},{"inputs":[],"name":"getHolderCount","outputs":[{"internalType":"uint256","name":"","type":"uint256"}],"stateMutability":"view","type":"function"},{"inputs":[],"name":"getHolders","outputs":[{"internalType":"address[]","name":"","type":"address[]"}],"stateMutability":"view","type":"function"},{"inputs":[{"internalType":"bytes32","name":"role","type":"bytes32"}],"name":"getRoleAdmin","outputs":[{"internalType":"bytes32","name":"","type":"bytes32"}],"stateMutability":"view","type":"function"},{"inputs":[{"internalType":"bytes32","name":"role","type":"bytes32"},{"internalType":"address","name":"account","type":"address"}],"name":"grantRole","outputs":[],"stateMutability":"nonpayable","type":"function"},{"inputs":[{"internalType":"bytes32","name":"role","type":"bytes32"},{"internalType":"address","name":"account","type":"address"}],"name":"hasRole","outputs":[{"internalType":"bool","name":"","type":"bool"}],"stateMutability":"view","type":"function"},{"inputs":[{"internalType":"uint256","name":"","type":"uint256"}],"name":"holders","outputs":[{"internalType":"address","name":"","type":"address"}],"stateMutability":"view","type":"function"},{"inputs":[{"internalType":"address","name":"from","type":"address"},{"internalType":"address","name":"to","type":"address"}],"name":"isCompliant","outputs":[{"internalType":"bool","name":"","type":"bool"}],"stateMutability":"view","type":"function"},{"inputs":[],"name":"jurisdiction","outputs":[{"internalType":"string","name":"","type":"string"}],"stateMutability":"view","type":"function"},{"inputs":[],"name":"maxSupply","outputs":[{"internalType":"uint256","name":"","type":"uint256"}],"stateMutability":"view","type":"function"},{"inputs":[{"internalType":"address","name":"to","type":"address"},{"internalType":"uint256","name":"amount","type":"uint256"}],"name":"mint","outputs":[],"stateMutability":"nonpayable","type":"function"},{"inputs":[],"name":"name","outputs":[{"internalType":"string","name":"","type":"string"}],"stateMutability":"view","type":"function"},{"inputs":[],"name":"pause","outputs":[],"stateMutability":"nonpayable","type":"function"},{"inputs":[],"name":"paused","outputs":[{"internalType":"bool","name":"","type":"bool"}],"stateMutability":"view","type":"function"},{"inputs":[{"internalType":"bytes32","name":"role","type":"bytes32"},{"internalType":"address","name":"callerConfirmation","type":"address"}],"name":"renounceRole","outputs":[],"stateMutability":"nonpayable","type":"function"},{"inputs":[{"internalType":"bytes32","name":"role","type":"bytes32"},{"internalType":"address","name":"account","type":"address"}],"name":"revokeRole","outputs":[],"stateMutability":"nonpayable","type":"function"},{"inputs":[{"internalType":"address","name":"account","type":"address"},{"internalType":"bool","name":"status","type":"bool"}],"name":"setFrozen","outputs":[],"stateMutability":"nonpayable","type":"function"},{"inputs":[{"internalType":"address","name":"account","type":"address"},{"internalType":"bool","name":"status","type":"bool"}],"name":"setWhitelisted","outputs":[],"stateMutability":"nonpayable","type":"function"},{"inputs":[{"internalType":"bytes4","name":"interfaceId","type":"bytes4"}],"name":"supportsInterface","outputs":[{"internalType":"bool","name":"","type":"bool"}],"stateMutability":"view","type":"function"},{"inputs":[],"name":"symbol","outputs":[{"internalType":"string","name":"","type":"string"}],"stateMutability":"view","type":"function"},{"inputs":[],"name":"totalSupply","outputs":[{"internalType":"uint256","name":"","type":"uint256"}],"stateMutability":"view","type":"function"},{"inputs":[{"internalType":"address","name":"to","type":"address"},{"internalType":"uint256","name":"value","type":"uint256"}],"name":"transfer","outputs":[{"internalType":"bool","name":"","type":"bool"}],"stateMutability":"nonpayable","type":"function"},{"inputs":[{"internalType":"address","name":"from","type":"address"},{"internalType":"address","name":"to","type":"address"},{"internalType":"uint256","name":"value","type":"uint256"}],"name":"transferFrom","outputs":[{"internalType":"bool","name":"","type":"bool"}],"stateMutability":"nonpayable","type":"function"},{"inputs":[],"name":"unpause","outputs":[],"stateMutability":"nonpayable","type":"function"},{"inputs":[{"internalType":"address","name":"","type":"address"}],"name":"whitelisted","outputs":[{"internalType":"bool","name":"","type":"bool"}],"stateMutability":"view","type":"function"}],"evm":{"bytecode":{"linkReferences":{},"object":"60806040523480156200001157600080fd5b50604051620022cd380380620022cd8339810160408190526200003491620002e4565b8686600362000044838262000472565b50600462000053828262000472565b505050600c859055600962000069858262000472565b50600a62000078848262000472565b50600b62000087838262000472565b50620000956000826200014c565b50620000c27fa49807205ce4d355092ef5a8a18f56e8913cf4a201fbe287825b095693c21775826200014c565b50620000ef7f9f2df0fed2c77648de5860a4cc508cd0818c85b8b8a1ab4ceeef8d981c8956a6826200014c565b506200011c7f442a94f1a1fac79af32856af2a64f63648cfa2ef3b98610a5bb7cbec4cee6985826200014c565b506001600160a01b03166000908152600760205260409020805460ff19166001179055506200053e945050505050565b60008281526005602090815260408083206001600160a01b038516845290915281205460ff16620001f55760008381526005602090815260408083206001600160a01b03861684529091529020805460ff19166001179055620001ac3390565b6001600160a01b0316826001600160a01b0316847f2f8788117e7eff1d82e926ec794901d17c78024a50270940304540a733656f0d60405160405180910390a4506001620001f9565b5060005b92915050565b634e487b7160e01b600052604160045260246000fd5b600082601f8301126200022757600080fd5b81516001600160401b0380821115620002445762000244620001ff565b604051601f8301601f19908116603f011681019082821181831017156200026f576200026f620001ff565b81604052838152602092508660208588010111156200028d57600080fd5b600091505b83821015620002b1578582018301518183018401529082019062000292565b6000602085830101528094505050505092915050565b80516001600160a01b0381168114620002df57600080fd5b919050565b600080600080600080600060e0888a0312156200030057600080fd5b87516001600160401b03808211156200031857600080fd5b620003268b838c0162000215565b985060208a01519150808211156200033d57600080fd5b6200034b8b838c0162000215565b975060408a0151965060608a01519150808211156200036957600080fd5b620003778b838c0162000215565b955060808a01519150808211156200038e57600080fd5b6200039c8b838c0162000215565b945060a08a0151915080821115620003b357600080fd5b50620003c28a828b0162000215565b925050620003d360c08901620002c7565b905092959891949750929550565b600181811c90821680620003f657607f821691505b6020821081036200041757634e487b7160e01b600052602260045260246000fd5b50919050565b601f8211156200046d576000816000526020600020601f850160051c81016020861015620004485750805b601f850160051c820191505b81811015620004695782815560010162000454565b5050505b505050565b81516001600160401b038111156200048e576200048e620001ff565b620004a6816200049f8454620003e1565b846200041d565b602080601f831160018114620004de5760008415620004c55750858301515b600019600386901b1c1916600185901b17855562000469565b600085815260208120601f198616915b828110156200050f57888601518255948401946001909101908401620004ee565b50858210156200052e5787850151600019600388901b60f8161c191681555b5050505050600190811b01905550565b611d7f806200054e6000396000f3fe608060405234801561001057600080fd5b50600436106102485760003560e01c806370a082311161013b578063a9059cbb116100b8578063d547741f1161007c578063d547741f14610506578063d5abeb0114610519578063d936547e14610522578063dd4fcc3f14610545578063dd62ed3e1461055857600080fd5b8063a9059cbb14610483578063ac869cd814610496578063b5adce3f146104a9578063d0516650146104bc578063d5391393146104df57600080fd5b80638456cb59116100ff5780638456cb591461044557806391d148541461044d5780639281aa0b1461046057806395d89b4114610473578063a217fddf1461047b57600080fd5b806370a08231146103e45780637136982b1461040d57806375b238fc1461041557806379cc67901461042a578063826a5d561461043d57600080fd5b806336568abe116101c957806342966c681161018d57806342966c681461039657806344de240a146103a95780635c975abb146103b15780635fe8e7cc146103bc57806368573107146103d157600080fd5b806336568abe1461034d5780633ad8b2d7146103605780633f4ba83a146103735780633fe3347a1461037b57806340c10f191461038357600080fd5b806323b872dd1161021057806323b872dd146102c8578063248a9ca3146102db5780632a11ced0146102fe5780632f2ff15d14610329578063313ce5671461033e57600080fd5b806301ffc9a71461024d578063062d3bd71461027557806306fdde0314610298578063095ea7b3146102ad57806318160ddd146102c0575b600080fd5b61026061025b366004611878565b610591565b60405190151581526020015b60405180910390f35b61028a600080516020611d0a83398151915281565b60405190815260200161026c565b6102a06105c8565b60405161026c91906118a2565b6102606102bb36600461190d565b61065a565b60025461028a565b6102606102d6366004611937565b610672565b61028a6102e9366004611973565b60009081526005602052604090206001015490565b61031161030c366004611973565b610696565b6040516001600160a01b03909116815260200161026c565b61033c61033736600461198c565b6106c0565b005b6040516012815260200161026c565b61033c61035b36600461198c565b6106eb565b61033c61036e3660046119b8565b610723565b61033c61080a565b6102a061082d565b61033c61039136600461190d565b6108bb565b61033c6103a4366004611973565b6109fb565b6102a0610a05565b60065460ff16610260565b6103c4610a12565b60405161026c9190611a53565b61033c6103df366004611aec565b610a73565b61028a6103f2366004611b58565b6001600160a01b031660009081526020819052604090205490565b600d5461028a565b61028a600080516020611d2a83398151915281565b61033c61043836600461190d565b610cbc565b6102a0610cde565b61033c610ceb565b61026061045b36600461198c565b610d0b565b61033c61046e366004611b83565b610d36565b6102a0610daf565b61028a600081565b61026061049136600461190d565b610dbe565b61033c6104a4366004611b83565b610dcc565b61033c6104b7366004611bad565b610e3c565b6102606104ca366004611b58565b60086020526000908152604090205460ff1681565b61028a7f9f2df0fed2c77648de5860a4cc508cd0818c85b8b8a1ab4ceeef8d981c8956a681565b61033c61051436600461198c565b610f26565b61028a600c5481565b610260610530366004611b58565b60076020526000908152604090205460ff1681565b610260610553366004611c01565b610f4b565b61028a610566366004611c01565b6001600160a01b03918216600090815260016020908152604080832093909416825291909152205490565b60006001600160e01b03198216637965db0b60e01b14806105c257506301ffc9a760e01b6001600160e01b03198316145b92915050565b6060600380546105d790611c2b565b80601f016020809104026020016040519081016040528092919081815260200182805461060390611c2b565b80156106505780601f1061062557610100808354040283529160200191610650565b820191906000526020600020905b81548152906001019060200180831161063357829003601f168201915b5050505050905090565b600033610668818585610feb565b5060019392505050565b600033610680858285610ff8565b61068b858585611071565b506001949350505050565b600d81815481106106a657600080fd5b6000918252602090912001546001600160a01b0316905081565b6000828152600560205260409020600101546106db816110d0565b6106e583836110da565b50505050565b6001600160a01b03811633146107145760405163334bd91960e11b815260040160405180910390fd5b61071e828261116e565b505050565b600080516020611d0a83398151915261073b816110d0565b6001600160a01b03851660009081526007602052604090205460ff166107a85760405162461bcd60e51b815260206004820152601b60248201527f4e58543a20746172676574206e6f742077686974656c6973746564000000000060448201526064015b60405180910390fd5b6107b3868686611071565b846001600160a01b0316866001600160a01b03167fbb53097141337c38a36fed7fae913304cd0c540e1200dbb4c8c1cee707f9f2c28686866040516107fa93929190611c65565b60405180910390a3505050505050565b600080516020611d2a833981519152610822816110d0565b61082a6111db565b50565b600a805461083a90611c2b565b80601f016020809104026020016040519081016040528092919081815260200182805461086690611c2b565b80156108b35780601f10610888576101008083540402835291602001916108b3565b820191906000526020600020905b81548152906001019060200180831161089657829003601f168201915b505050505081565b7f9f2df0fed2c77648de5860a4cc508cd0818c85b8b8a1ab4ceeef8d981c8956a66108e5816110d0565b6108ed61122d565b6001600160a01b03831660009081526007602052604090205460ff166109255760405162461bcd60e51b815260040161079f90611c9b565b6001600160a01b03831660009081526008602052604090205460ff16156109895760405162461bcd60e51b8152602060048201526018602482015277272c2a1d103932b1b4b834b2b73a1034b990333937bd32b760411b604482015260640161079f565b600c548261099660025490565b6109a09190611cd2565b11156109e85760405162461bcd60e51b81526020600482015260176024820152764e58543a2065786365656473206d617820737570706c7960481b604482015260640161079f565b6109f28383611253565b61071e8361128d565b61082a3382611338565b6009805461083a90611c2b565b6060600d80548060200260200160405190810160405280929190818152602001828054801561065057602002820191906000526020600020905b81546001600160a01b03168152600190910190602001808311610a4c575050505050905090565b7f9f2df0fed2c77648de5860a4cc508cd0818c85b8b8a1ab4ceeef8d981c8956a6610a9d816110d0565b610aa561122d565b838214610aeb5760405162461bcd60e51b815260206004820152601460248201527309cb0a87440d8cadccee8d040dad2e6dac2e8c6d60631b604482015260640161079f565b60005b84811015610c665760076000878784818110610b0c57610b0c611cf3565b9050602002016020810190610b219190611b58565b6001600160a01b0316815260208101919091526040016000205460ff16610b5a5760405162461bcd60e51b815260040161079f90611c9b565b60086000878784818110610b7057610b70611cf3565b9050602002016020810190610b859190611b58565b6001600160a01b0316815260208101919091526040016000205460ff1615610be75760405162461bcd60e51b8152602060048201526015602482015274272c2a1d103932b1b4b834b2b73a10333937bd32b760591b604482015260640161079f565b610c2f868683818110610bfc57610bfc611cf3565b9050602002016020810190610c119190611b58565b858584818110610c2357610c23611cf3565b90506020020135611253565b610c5e868683818110610c4457610c44611cf3565b9050602002016020810190610c599190611b58565b61128d565b600101610aee565b50600c546002541115610cb55760405162461bcd60e51b81526020600482015260176024820152764e58543a2065786365656473206d617820737570706c7960481b604482015260640161079f565b5050505050565b600080516020611d2a833981519152610cd4816110d0565b61071e8383611338565b600b805461083a90611c2b565b600080516020611d2a833981519152610d03816110d0565b61082a61136e565b60009182526005602090815260408084206001600160a01b0393909316845291905290205460ff1690565b600080516020611d0a833981519152610d4e816110d0565b6001600160a01b038316600081815260076020908152604091829020805460ff191686151590811790915591519182527fa54714518c5d275fdcd3d2a461e4858e4e8cb04fb93cd0bca9d6d34115f2644091015b60405180910390a2505050565b6060600480546105d790611c2b565b600033610668818585611071565b600080516020611d0a833981519152610de4816110d0565b6001600160a01b038316600081815260086020908152604091829020805460ff191686151590811790915591519182527f713eb400302cebac61f82eb8de5051d38458517ffac43ae45f4a9fd5d09ee6989101610da2565b600080516020611d0a833981519152610e54816110d0565b60005b83811015610cb5578260076000878785818110610e7657610e76611cf3565b9050602002016020810190610e8b9190611b58565b6001600160a01b031681526020810191909152604001600020805460ff1916911515919091179055848482818110610ec557610ec5611cf3565b9050602002016020810190610eda9190611b58565b6001600160a01b03167fa54714518c5d275fdcd3d2a461e4858e4e8cb04fb93cd0bca9d6d34115f2644084604051610f16911515815260200190565b60405180910390a2600101610e57565b600082815260056020526040902060010154610f41816110d0565b6106e5838361116e565b6001600160a01b03821660009081526007602052604081205460ff168015610f8b57506001600160a01b03821660009081526007602052604090205460ff165b8015610fb057506001600160a01b03831660009081526008602052604090205460ff16155b8015610fd557506001600160a01b03821660009081526008602052604090205460ff16155b8015610fe4575060065460ff16155b9392505050565b61071e83838360016113ab565b6001600160a01b038381166000908152600160209081526040808320938616835292905220546000198110156106e5578181101561106257604051637dc7a0d960e11b81526001600160a01b0384166004820152602481018290526044810183905260640161079f565b6106e5848484840360006113ab565b6001600160a01b03831661109b57604051634b637e8f60e11b81526000600482015260240161079f565b6001600160a01b0382166110c55760405163ec442f0560e01b81526000600482015260240161079f565b61071e838383611480565b61082a81336116f2565b60006110e68383610d0b565b6111665760008381526005602090815260408083206001600160a01b03861684529091529020805460ff1916600117905561111e3390565b6001600160a01b0316826001600160a01b0316847f2f8788117e7eff1d82e926ec794901d17c78024a50270940304540a733656f0d60405160405180910390a45060016105c2565b5060006105c2565b600061117a8383610d0b565b156111665760008381526005602090815260408083206001600160a01b0386168085529252808320805460ff1916905551339286917ff6391f5c32d9c69d2a47ea670b442974b53935d1edc7fd64eb21e047a839171b9190a45060016105c2565b6111e361172b565b6006805460ff191690557f5db9ee0a495bf2e6ff9c91a7834c1ba4fdd244a5e8aa4e537bd38aeae4b073aa335b6040516001600160a01b03909116815260200160405180910390a1565b60065460ff16156112515760405163d93c066560e01b815260040160405180910390fd5b565b6001600160a01b03821661127d5760405163ec442f0560e01b81526000600482015260240161079f565b61128960008383611480565b5050565b6001600160a01b0381166000908152600e602052604090205460ff161580156112cc57506001600160a01b038116600090815260208190526040812054115b1561082a57600d805460018181019092557fd7b6990105719101dabeb77144f2a3385c8033acd3af97e9423a695e81ad1eb50180546001600160a01b0384166001600160a01b031990911681179091556000908152600e60205260409020805460ff1916909117905550565b6001600160a01b03821661136257604051634b637e8f60e11b81526000600482015260240161079f565b61128982600083611480565b61137661122d565b6006805460ff191660011790557f62e78cea01bee320cd4e420270b5ea74000d11b0c9f74754ebdbfc544b05a2586112103390565b6001600160a01b0384166113d55760405163e602df0560e01b81526000600482015260240161079f565b6001600160a01b0383166113ff57604051634a1406b160e11b81526000600482015260240161079f565b6001600160a01b03808516600090815260016020908152604080832093871683529290522082905580156106e557826001600160a01b0316846001600160a01b03167f8c5be1e5ebec7d5bd14f71427d1e84f3dd0314c0f7b2291e5b200ac8c7c3b9258460405161147291815260200190565b60405180910390a350505050565b6001600160a01b038316158015906114a057506001600160a01b03821615155b156116cf5760065460ff16156114f05760405162461bcd60e51b81526020600482015260156024820152741396150e881d1c985b9cd9995c9cc81c185d5cd959605a1b604482015260640161079f565b6001600160a01b03831660009081526007602052604090205460ff166115585760405162461bcd60e51b815260206004820152601b60248201527f4e58543a2073656e646572206e6f742077686974656c69737465640000000000604482015260640161079f565b6001600160a01b03821660009081526007602052604090205460ff166115905760405162461bcd60e51b815260040161079f90611c9b565b6001600160a01b03831660009081526008602052604090205460ff16156115f15760405162461bcd60e51b8152602060048201526015602482015274272c2a1d1039b2b73232b91034b990333937bd32b760591b604482015260640161079f565b6001600160a01b03821660009081526008602052604090205460ff16156116555760405162461bcd60e51b8152602060048201526018602482015277272c2a1d103932b1b4b834b2b73a1034b990333937bd32b760411b604482015260640161079f565b816001600160a01b0316836001600160a01b03167feca16393bf801ab7a64235fed78748ac46cd7df230a0f8edb3222cd33bf7b63460016040516116c6911515815260406020820181905260119082015270151c985b9cd9995c88185c1c1c9bdd9959607a1b606082015260800190565b60405180910390a35b6116da83838361174e565b6001600160a01b0382161561071e5761071e8261128d565b6116fc8282610d0b565b6112895760405163e2517d3f60e01b81526001600160a01b03821660048201526024810183905260440161079f565b60065460ff1661125157604051638dfc202b60e01b815260040160405180910390fd5b6001600160a01b03831661177957806002600082825461176e9190611cd2565b909155506117eb9050565b6001600160a01b038316600090815260208190526040902054818110156117cc5760405163391434e360e21b81526001600160a01b0385166004820152602481018290526044810183905260640161079f565b6001600160a01b03841660009081526020819052604090209082900390555b6001600160a01b03821661180757600280548290039055611826565b6001600160a01b03821660009081526020819052604090208054820190555b816001600160a01b0316836001600160a01b03167fddf252ad1be2c89b69c2b068fc378daa952ba7f163c4a11628f55a4df523b3ef8360405161186b91815260200190565b60405180910390a3505050565b60006020828403121561188a57600080fd5b81356001600160e01b031981168114610fe457600080fd5b60006020808352835180602085015260005b818110156118d0578581018301518582016040015282016118b4565b506000604082860101526040601f19601f8301168501019250505092915050565b80356001600160a01b038116811461190857600080fd5b919050565b6000806040838503121561192057600080fd5b611929836118f1565b946020939093013593505050565b60008060006060848603121561194c57600080fd5b611955846118f1565b9250611963602085016118f1565b9150604084013590509250925092565b60006020828403121561198557600080fd5b5035919050565b6000806040838503121561199f57600080fd5b823591506119af602084016118f1565b90509250929050565b6000806000806000608086880312156119d057600080fd5b6119d9866118f1565b94506119e7602087016118f1565b935060408601359250606086013567ffffffffffffffff80821115611a0b57600080fd5b818801915088601f830112611a1f57600080fd5b813581811115611a2e57600080fd5b896020828501011115611a4057600080fd5b9699959850939650602001949392505050565b6020808252825182820181905260009190848201906040850190845b81811015611a945783516001600160a01b031683529284019291840191600101611a6f565b50909695505050505050565b60008083601f840112611ab257600080fd5b50813567ffffffffffffffff811115611aca57600080fd5b6020830191508360208260051b8501011115611ae557600080fd5b9250929050565b60008060008060408587031215611b0257600080fd5b843567ffffffffffffffff80821115611b1a57600080fd5b611b2688838901611aa0565b90965094506020870135915080821115611b3f57600080fd5b50611b4c87828801611aa0565b95989497509550505050565b600060208284031215611b6a57600080fd5b610fe4826118f1565b8035801515811461190857600080fd5b60008060408385031215611b9657600080fd5b611b9f836118f1565b91506119af60208401611b73565b600080600060408486031215611bc257600080fd5b833567ffffffffffffffff811115611bd957600080fd5b611be586828701611aa0565b9094509250611bf8905060208501611b73565b90509250925092565b60008060408385031215611c1457600080fd5b611c1d836118f1565b91506119af602084016118f1565b600181811c90821680611c3f57607f821691505b602082108103611c5f57634e487b7160e01b600052602260045260246000fd5b50919050565b83815260406020820152816040820152818360608301376000818301606090810191909152601f909201601f1916010192915050565b6020808252601e908201527f4e58543a20726563697069656e74206e6f742077686974656c69737465640000604082015260600190565b808201808211156105c257634e487b7160e01b600052601160045260246000fd5b634e487b7160e01b600052603260045260246000fdfe442a94f1a1fac79af32856af2a64f63648cfa2ef3b98610a5bb7cbec4cee6985a49807205ce4d355092ef5a8a18f56e8913cf4a201fbe287825b095693c21775a264697066735822122015e991bc6471fff04ff8f134d233eb469e5a7a87f5a941d4be4fbf62f8d5a23b64736f6c63430008180033","opcodes":"PUSH1 0x80 PUSH1 0x40 MSTORE CALLVALUE DUP1 ISZERO PUSH3 0x11 JUMPI PUSH1 0x0 DUP1 REVERT JUMPDEST POP PUSH1 0x40 MLOAD PUSH3 0x22CD CODESIZE SUB DUP1 PUSH3 0x22CD DUP4 CODECOPY DUP2 ADD PUSH1 0x40 DUP2 SWAP1 MSTORE PUSH3 0x34 SWAP2 PUSH3 0x2E4 JUMP JUMPDEST DUP7 DUP7 PUSH1 0x3 PUSH3 0x44 DUP4 DUP3 PUSH3 0x472 JUMP JUMPDEST POP PUSH1 0x4 PUSH3 0x53 DUP3 DUP3 PUSH3 0x472 JUMP JUMPDEST POP POP POP PUSH1 0xC DUP6 SWAP1 SSTORE PUSH1 0x9 PUSH3 0x69 DUP6 DUP3 PUSH3 0x472 JUMP JUMPDEST POP PUSH1 0xA PUSH3 0x78 DUP5 DUP3 PUSH3 0x472 JUMP JUMPDEST POP PUSH1 0xB PUSH3 0x87 DUP4 DUP3 PUSH3 0x472 JUMP JUMPDEST POP PUSH3 0x95 PUSH1 0x0 DUP3 PUSH3 0x14C JUMP JUMPDEST POP PUSH3 0xC2 PUSH32 0xA49807205CE4D355092EF5A8A18F56E8913CF4A201FBE287825B095693C21775 DUP3 PUSH3 0x14C JUMP JUMPDEST POP PUSH3 0xEF PUSH32 0x9F2DF0FED2C77648DE5860A4CC508CD0818C85B8B8A1AB4CEEEF8D981C8956A6 DUP3 PUSH3 0x14C JUMP JUMPDEST POP PUSH3 0x11C PUSH32 0x442A94F1A1FAC79AF32856AF2A64F63648CFA2EF3B98610A5BB7CBEC4CEE6985 DUP3 PUSH3 0x14C JUMP JUMPDEST POP PUSH1 0x1 PUSH1 0x1 PUSH1 0xA0 SHL SUB AND PUSH1 0x0 SWAP1 DUP2 MSTORE PUSH1 0x7 PUSH1 0x20 MSTORE PUSH1 0x40 SWAP1 KECCAK256 DUP1 SLOAD PUSH1 0xFF NOT AND PUSH1 0x1 OR SWAP1 SSTORE POP PUSH3 0x53E SWAP5 POP POP POP POP POP JUMP JUMPDEST PUSH1 0x0 DUP3 DUP2 MSTORE PUSH1 0x5 PUSH1 0x20 SWAP1 DUP2 MSTORE PUSH1 0x40 DUP1 DUP4 KECCAK256 PUSH1 0x1 PUSH1 0x1 PUSH1 0xA0 SHL SUB DUP6 AND DUP5 MSTORE SWAP1 SWAP2 MSTORE DUP2 KECCAK256 SLOAD PUSH1 0xFF AND PUSH3 0x1F5 JUMPI PUSH1 0x0 DUP4 DUP2 MSTORE PUSH1 0x5 PUSH1 0x20 SWAP1 DUP2 MSTORE PUSH1 0x40 DUP1 DUP4 KECCAK256 PUSH1 0x1 PUSH1 0x1 PUSH1 0xA0 SHL SUB DUP7 AND DUP5 MSTORE SWAP1 SWAP2 MSTORE SWAP1 KECCAK256 DUP1 SLOAD PUSH1 0xFF NOT AND PUSH1 0x1 OR SWAP1 SSTORE PUSH3 0x1AC CALLER SWAP1 JUMP JUMPDEST PUSH1 0x1 PUSH1 0x1 PUSH1 0xA0 SHL SUB AND DUP3 PUSH1 0x1 PUSH1 0x1 PUSH1 0xA0 SHL SUB AND DUP5 PUSH32 0x2F8788117E7EFF1D82E926EC794901D17C78024A50270940304540A733656F0D PUSH1 0x40 MLOAD PUSH1 0x40 MLOAD DUP1 SWAP2 SUB SWAP1 LOG4 POP PUSH1 0x1 PUSH3 0x1F9 JUMP JUMPDEST POP PUSH1 0x0 JUMPDEST SWAP3 SWAP2 POP POP JUMP JUMPDEST PUSH4 0x4E487B71 PUSH1 0xE0 SHL PUSH1 0x0 MSTORE PUSH1 0x41 PUSH1 0x4 MSTORE PUSH1 0x24 PUSH1 0x0 REVERT JUMPDEST PUSH1 0x0 DUP3 PUSH1 0x1F DUP4 ADD SLT PUSH3 0x227 JUMPI PUSH1 0x0 DUP1 REVERT JUMPDEST DUP2 MLOAD PUSH1 0x1 PUSH1 0x1 PUSH1 0x40 SHL SUB DUP1 DUP3 GT ISZERO PUSH3 0x244 JUMPI PUSH3 0x244 PUSH3 0x1FF JUMP JUMPDEST PUSH1 0x40 MLOAD PUSH1 0x1F DUP4 ADD PUSH1 0x1F NOT SWAP1 DUP2 AND PUSH1 0x3F ADD AND DUP2 ADD SWAP1 DUP3 DUP3 GT DUP2 DUP4 LT OR ISZERO PUSH3 0x26F JUMPI PUSH3 0x26F PUSH3 0x1FF JUMP JUMPDEST DUP2 PUSH1 0x40 MSTORE DUP4 DUP2 MSTORE PUSH1 0x20 SWAP3 POP DUP7 PUSH1 0x20 DUP6 DUP9 ADD ADD GT ISZERO PUSH3 0x28D JUMPI PUSH1 0x0 DUP1 REVERT JUMPDEST PUSH1 0x0 SWAP2 POP JUMPDEST DUP4 DUP3 LT ISZERO PUSH3 0x2B1 JUMPI DUP6 DUP3 ADD DUP4 ADD MLOAD DUP2 DUP4 ADD DUP5 ADD MSTORE SWAP1 DUP3 ADD SWAP1 PUSH3 0x292 JUMP JUMPDEST PUSH1 0x0 PUSH1 0x20 DUP6 DUP4 ADD ADD MSTORE DUP1 SWAP5 POP POP POP POP POP SWAP3 SWAP2 POP POP JUMP JUMPDEST DUP1 MLOAD PUSH1 0x1 PUSH1 0x1 PUSH1 0xA0 SHL SUB DUP2 AND DUP2 EQ PUSH3 0x2DF JUMPI PUSH1 0x0 DUP1 REVERT JUMPDEST SWAP2 SWAP1 POP JUMP JUMPDEST PUSH1 0x0 DUP1 PUSH1 0x0 DUP1 PUSH1 0x0 DUP1 PUSH1 0x0 PUSH1 0xE0 DUP9 DUP11 SUB SLT ISZERO PUSH3 0x300 JUMPI PUSH1 0x0 DUP1 REVERT JUMPDEST DUP8 MLOAD PUSH1 0x1 PUSH1 0x1 PUSH1 0x40 SHL SUB DUP1 DUP3 GT ISZERO PUSH3 0x318 JUMPI PUSH1 0x0 DUP1 REVERT JUMPDEST PUSH3 0x326 DUP12 DUP4 DUP13 ADD PUSH3 0x215 JUMP JUMPDEST SWAP9 POP PUSH1 0x20 DUP11 ADD MLOAD SWAP2 POP DUP1 DUP3 GT ISZERO PUSH3 0x33D JUMPI PUSH1 0x0 DUP1 REVERT JUMPDEST PUSH3 0x34B DUP12 DUP4 DUP13 ADD PUSH3 0x215 JUMP JUMPDEST SWAP8 POP PUSH1 0x40 DUP11 ADD MLOAD SWAP7 POP PUSH1 0x60 DUP11 ADD MLOAD SWAP2 POP DUP1 DUP3 GT ISZERO PUSH3 0x369 JUMPI PUSH1 0x0 DUP1 REVERT JUMPDEST PUSH3 0x377 DUP12 DUP4 DUP13 ADD PUSH3 0x215 JUMP JUMPDEST SWAP6 POP PUSH1 0x80 DUP11 ADD MLOAD SWAP2 POP DUP1 DUP3 GT ISZERO PUSH3 0x38E JUMPI PUSH1 0x0 DUP1 REVERT JUMPDEST PUSH3 0x39C DUP12 DUP4 DUP13 ADD PUSH3 0x215 JUMP JUMPDEST SWAP5 POP PUSH1 0xA0 DUP11 ADD MLOAD SWAP2 POP DUP1 DUP3 GT ISZERO PUSH3 0x3B3 JUMPI PUSH1 0x0 DUP1 REVERT JUMPDEST POP PUSH3 0x3C2 DUP11 DUP3 DUP12 ADD PUSH3 0x215 JUMP JUMPDEST SWAP3 POP POP PUSH3 0x3D3 PUSH1 0xC0 DUP10 ADD PUSH3 0x2C7 JUMP JUMPDEST SWAP1 POP SWAP3 SWAP6 SWAP9 SWAP2 SWAP5 SWAP8 POP SWAP3 SWAP6 POP JUMP JUMPDEST PUSH1 0x1 DUP2 DUP2 SHR SWAP1 DUP3 AND DUP1 PUSH3 0x3F6 JUMPI PUSH1 0x7F DUP3 AND SWAP2 POP JUMPDEST PUSH1 0x20 DUP3 LT DUP2 SUB PUSH3 0x417 JUMPI PUSH4 0x4E487B71 PUSH1 0xE0 SHL PUSH1 0x0 MSTORE PUSH1 0x22 PUSH1 0x4 MSTORE PUSH1 0x24 PUSH1 0x0 REVERT JUMPDEST POP SWAP2 SWAP1 POP JUMP JUMPDEST PUSH1 0x1F DUP3 GT ISZERO PUSH3 0x46D JUMPI PUSH1 0x0 DUP2 PUSH1 0x0 MSTORE PUSH1 0x20 PUSH1 0x0 KECCAK256 PUSH1 0x1F DUP6 ADD PUSH1 0x5 SHR DUP2 ADD PUSH1 0x20 DUP7 LT ISZERO PUSH3 0x448 JUMPI POP DUP1 JUMPDEST PUSH1 0x1F DUP6 ADD PUSH1 0x5 SHR DUP3 ADD SWAP2 POP JUMPDEST DUP2 DUP2 LT ISZERO PUSH3 0x469 JUMPI DUP3 DUP2 SSTORE PUSH1 0x1 ADD PUSH3 0x454 JUMP JUMPDEST POP POP POP JUMPDEST POP POP POP JUMP JUMPDEST DUP2 MLOAD PUSH1 0x1 PUSH1 0x1 PUSH1 0x40 SHL SUB DUP2 GT ISZERO PUSH3 0x48E JUMPI PUSH3 0x48E PUSH3 0x1FF JUMP JUMPDEST PUSH3 0x4A6 DUP2 PUSH3 0x49F DUP5 SLOAD PUSH3 0x3E1 JUMP JUMPDEST DUP5 PUSH3 0x41D JUMP JUMPDEST PUSH1 0x20 DUP1 PUSH1 0x1F DUP4 GT PUSH1 0x1 DUP2 EQ PUSH3 0x4DE JUMPI PUSH1 0x0 DUP5 ISZERO PUSH3 0x4C5 JUMPI POP DUP6 DUP4 ADD MLOAD JUMPDEST PUSH1 0x0 NOT PUSH1 0x3 DUP7 SWAP1 SHL SHR NOT AND PUSH1 0x1 DUP6 SWAP1 SHL OR DUP6 SSTORE PUSH3 0x469 JUMP JUMPDEST PUSH1 0x0 DUP6 DUP2 MSTORE PUSH1 0x20 DUP2 KECCAK256 PUSH1 0x1F NOT DUP7 AND SWAP2 JUMPDEST DUP3 DUP2 LT ISZERO PUSH3 0x50F JUMPI DUP9 DUP7 ADD MLOAD DUP3 SSTORE SWAP5 DUP5 ADD SWAP5 PUSH1 0x1 SWAP1 SWAP2 ADD SWAP1 DUP5 ADD PUSH3 0x4EE JUMP JUMPDEST POP DUP6 DUP3 LT ISZERO PUSH3 0x52E JUMPI DUP8 DUP6 ADD MLOAD PUSH1 0x0 NOT PUSH1 0x3 DUP9 SWAP1 SHL PUSH1 0xF8 AND SHR NOT AND DUP2 SSTORE JUMPDEST POP POP POP POP POP PUSH1 0x1 SWAP1 DUP2 SHL ADD SWAP1 SSTORE POP JUMP JUMPDEST PUSH2 0x1D7F DUP1 PUSH3 0x54E PUSH1 0x0 CODECOPY PUSH1 0x0 RETURN INVALID PUSH1 0x80 PUSH1 0x40 MSTORE CALLVALUE DUP1 ISZERO PUSH2 0x10 JUMPI PUSH1 0x0 DUP1 REVERT JUMPDEST POP PUSH1 0x4 CALLDATASIZE LT PUSH2 0x248 JUMPI PUSH1 0x0 CALLDATALOAD PUSH1 0xE0 SHR DUP1 PUSH4 0x70A08231 GT PUSH2 0x13B JUMPI DUP1 PUSH4 0xA9059CBB GT PUSH2 0xB8 JUMPI DUP1 PUSH4 0xD547741F GT PUSH2 0x7C JUMPI DUP1 PUSH4 0xD547741F EQ PUSH2 0x506 JUMPI DUP1 PUSH4 0xD5ABEB01 EQ PUSH2 0x519 JUMPI DUP1 PUSH4 0xD936547E EQ PUSH2 0x522 JUMPI DUP1 PUSH4 0xDD4FCC3F EQ PUSH2 0x545 JUMPI DUP1 PUSH4 0xDD62ED3E EQ PUSH2 0x558 JUMPI PUSH1 0x0 DUP1 REVERT JUMPDEST DUP1 PUSH4 0xA9059CBB EQ PUSH2 0x483 JUMPI DUP1 PUSH4 0xAC869CD8 EQ PUSH2 0x496 JUMPI DUP1 PUSH4 0xB5ADCE3F EQ PUSH2 0x4A9 JUMPI DUP1 PUSH4 0xD0516650 EQ PUSH2 0x4BC JUMPI DUP1 PUSH4 0xD5391393 EQ PUSH2 0x4DF JUMPI PUSH1 0x0 DUP1 REVERT JUMPDEST DUP1 PUSH4 0x8456CB59 GT PUSH2 0xFF JUMPI DUP1 PUSH4 0x8456CB59 EQ PUSH2 0x445 JUMPI DUP1 PUSH4 0x91D14854 EQ PUSH2 0x44D JUMPI DUP1 PUSH4 0x9281AA0B EQ PUSH2 0x460 JUMPI DUP1 PUSH4 0x95D89B41 EQ PUSH2 0x473 JUMPI DUP1 PUSH4 0xA217FDDF EQ PUSH2 0x47B JUMPI PUSH1 0x0 DUP1 REVERT JUMPDEST DUP1 PUSH4 0x70A08231 EQ PUSH2 0x3E4 JUMPI DUP1 PUSH4 0x7136982B EQ PUSH2 0x40D JUMPI DUP1 PUSH4 0x75B238FC EQ PUSH2 0x415 JUMPI DUP1 PUSH4 0x79CC6790 EQ PUSH2 0x42A JUMPI DUP1 PUSH4 0x826A5D56 EQ PUSH2 0x43D JUMPI PUSH1 0x0 DUP1 REVERT JUMPDEST DUP1 PUSH4 0x36568ABE GT PUSH2 0x1C9 JUMPI DUP1 PUSH4 0x42966C68 GT PUSH2 0x18D JUMPI DUP1 PUSH4 0x42966C68 EQ PUSH2 0x396 JUMPI DUP1 PUSH4 0x44DE240A EQ PUSH2 0x3A9 JUMPI DUP1 PUSH4 0x5C975ABB EQ PUSH2 0x3B1 JUMPI DUP1 PUSH4 0x5FE8E7CC EQ PUSH2 0x3BC JUMPI DUP1 PUSH4 0x68573107 EQ PUSH2 0x3D1 JUMPI PUSH1 0x0 DUP1 REVERT JUMPDEST DUP1 PUSH4 0x36568ABE EQ PUSH2 0x34D JUMPI DUP1 PUSH4 0x3AD8B2D7 EQ PUSH2 0x360 JUMPI DUP1 PUSH4 0x3F4BA83A EQ PUSH2 0x373 JUMPI DUP1 PUSH4 0x3FE3347A EQ PUSH2 0x37B JUMPI DUP1 PUSH4 0x40C10F19 EQ PUSH2 0x383 JUMPI PUSH1 0x0 DUP1 REVERT JUMPDEST DUP1 PUSH4 0x23B872DD GT PUSH2 0x210 JUMPI DUP1 PUSH4 0x23B872DD EQ PUSH2 0x2C8 JUMPI DUP1 PUSH4 0x248A9CA3 EQ PUSH2 0x2DB JUMPI DUP1 PUSH4 0x2A11CED0 EQ PUSH2 0x2FE JUMPI DUP1 PUSH4 0x2F2FF15D EQ PUSH2 0x329 JUMPI DUP1 PUSH4 0x313CE567 EQ PUSH2 0x33E JUMPI PUSH1 0x0 DUP1 REVERT JUMPDEST DUP1 PUSH4 0x1FFC9A7 EQ PUSH2 0x24D JUMPI DUP1 PUSH4 0x62D3BD7 EQ PUSH2 0x275 JUMPI DUP1 PUSH4 0x6FDDE03 EQ PUSH2 0x298 JUMPI DUP1 PUSH4 0x95EA7B3 EQ PUSH2 0x2AD JUMPI DUP1 PUSH4 0x18160DDD EQ PUSH2 0x2C0 JUMPI JUMPDEST PUSH1 0x0 DUP1 REVERT JUMPDEST PUSH2 0x260 PUSH2 0x25B CALLDATASIZE PUSH1 0x4 PUSH2 0x1878 JUMP JUMPDEST PUSH2 0x591 JUMP JUMPDEST PUSH1 0x40 MLOAD SWAP1 ISZERO ISZERO DUP2 MSTORE PUSH1 0x20 ADD JUMPDEST PUSH1 0x40 MLOAD DUP1 SWAP2 SUB SWAP1 RETURN JUMPDEST PUSH2 0x28A PUSH1 0x0 DUP1 MLOAD PUSH1 0x20 PUSH2 0x1D0A DUP4 CODECOPY DUP2 MLOAD SWAP2 MSTORE DUP2 JUMP JUMPDEST PUSH1 0x40 MLOAD SWAP1 DUP2 MSTORE PUSH1 0x20 ADD PUSH2 0x26C JUMP JUMPDEST PUSH2 0x2A0 PUSH2 0x5C8 JUMP JUMPDEST PUSH1 0x40 MLOAD PUSH2 0x26C SWAP2 SWAP1 PUSH2 0x18A2 JUMP JUMPDEST PUSH2 0x260 PUSH2 0x2BB CALLDATASIZE PUSH1 0x4 PUSH2 0x190D JUMP JUMPDEST PUSH2 0x65A JUMP JUMPDEST PUSH1 0x2 SLOAD PUSH2 0x28A JUMP JUMPDEST PUSH2 0x260 PUSH2 0x2D6 CALLDATASIZE PUSH1 0x4 PUSH2 0x1937 JUMP JUMPDEST PUSH2 0x672 JUMP JUMPDEST PUSH2 0x28A PUSH2 0x2E9 CALLDATASIZE PUSH1 0x4 PUSH2 0x1973 JUMP JUMPDEST PUSH1 0x0 SWAP1 DUP2 MSTORE PUSH1 0x5 PUSH1 0x20 MSTORE PUSH1 0x40 SWAP1 KECCAK256 PUSH1 0x1 ADD SLOAD SWAP1 JUMP JUMPDEST PUSH2 0x311 PUSH2 0x30C CALLDATASIZE PUSH1 0x4 PUSH2 0x1973 JUMP JUMPDEST PUSH2 0x696 JUMP JUMPDEST PUSH1 0x40 MLOAD PUSH1 0x1 PUSH1 0x1 PUSH1 0xA0 SHL SUB SWAP1 SWAP2 AND DUP2 MSTORE PUSH1 0x20 ADD PUSH2 0x26C JUMP JUMPDEST PUSH2 0x33C PUSH2 0x337 CALLDATASIZE PUSH1 0x4 PUSH2 0x198C JUMP JUMPDEST PUSH2 0x6C0 JUMP JUMPDEST STOP JUMPDEST PUSH1 0x40 MLOAD PUSH1 0x12 DUP2 MSTORE PUSH1 0x20 ADD PUSH2 0x26C JUMP JUMPDEST PUSH2 0x33C PUSH2 0x35B CALLDATASIZE PUSH1 0x4 PUSH2 0x198C JUMP JUMPDEST PUSH2 0x6EB JUMP JUMPDEST PUSH2 0x33C PUSH2 0x36E CALLDATASIZE PUSH1 0x4 PUSH2 0x19B8 JUMP JUMPDEST PUSH2 0x723 JUMP JUMPDEST PUSH2 0x33C PUSH2 0x80A JUMP JUMPDEST PUSH2 0x2A0 PUSH2 0x82D JUMP JUMPDEST PUSH2 0x33C PUSH2 0x391 CALLDATASIZE PUSH1 0x4 PUSH2 0x190D JUMP JUMPDEST PUSH2 0x8BB JUMP JUMPDEST PUSH2 0x33C PUSH2 0x3A4 CALLDATASIZE PUSH1 0x4 PUSH2 0x1973 JUMP JUMPDEST PUSH2 0x9FB JUMP JUMPDEST PUSH2 0x2A0 PUSH2 0xA05 JUMP JUMPDEST PUSH1 0x6 SLOAD PUSH1 0xFF AND PUSH2 0x260 JUMP JUMPDEST PUSH2 0x3C4 PUSH2 0xA12 JUMP JUMPDEST PUSH1 0x40 MLOAD PUSH2 0x26C SWAP2 SWAP1 PUSH2 0x1A53 JUMP JUMPDEST PUSH2 0x33C PUSH2 0x3DF CALLDATASIZE PUSH1 0x4 PUSH2 0x1AEC JUMP JUMPDEST PUSH2 0xA73 JUMP JUMPDEST PUSH2 0x28A PUSH2 0x3F2 CALLDATASIZE PUSH1 0x4 PUSH2 0x1B58 JUMP JUMPDEST PUSH1 0x1 PUSH1 0x1 PUSH1 0xA0 SHL SUB AND PUSH1 0x0 SWAP1 DUP2 MSTORE PUSH1 0x20 DUP2 SWAP1 MSTORE PUSH1 0x40 SWAP1 KECCAK256 SLOAD SWAP1 JUMP JUMPDEST PUSH1 0xD SLOAD PUSH2 0x28A JUMP JUMPDEST PUSH2 0x28A PUSH1 0x0 DUP1 MLOAD PUSH1 0x20 PUSH2 0x1D2A DUP4 CODECOPY DUP2 MLOAD SWAP2 MSTORE DUP2 JUMP JUMPDEST PUSH2 0x33C PUSH2 0x438 CALLDATASIZE PUSH1 0x4 PUSH2 0x190D JUMP JUMPDEST PUSH2 0xCBC JUMP JUMPDEST PUSH2 0x2A0 PUSH2 0xCDE JUMP JUMPDEST PUSH2 0x33C PUSH2 0xCEB JUMP JUMPDEST PUSH2 0x260 PUSH2 0x45B CALLDATASIZE PUSH1 0x4 PUSH2 0x198C JUMP JUMPDEST PUSH2 0xD0B JUMP JUMPDEST PUSH2 0x33C PUSH2 0x46E CALLDATASIZE PUSH1 0x4 PUSH2 0x1B83 JUMP JUMPDEST PUSH2 0xD36 JUMP JUMPDEST PUSH2 0x2A0 PUSH2 0xDAF JUMP JUMPDEST PUSH2 0x28A PUSH1 0x0 DUP2 JUMP JUMPDEST PUSH2 0x260 PUSH2 0x491 CALLDATASIZE PUSH1 0x4 PUSH2 0x190D JUMP JUMPDEST PUSH2 0xDBE JUMP JUMPDEST PUSH2 0x33C PUSH2 0x4A4 CALLDATASIZE PUSH1 0x4 PUSH2 0x1B83 JUMP JUMPDEST PUSH2 0xDCC JUMP JUMPDEST PUSH2 0x33C PUSH2 0x4B7 CALLDATASIZE PUSH1 0x4 PUSH2 0x1BAD JUMP JUMPDEST PUSH2 0xE3C JUMP JUMPDEST PUSH2 0x260 PUSH2 0x4CA CALLDATASIZE PUSH1 0x4 PUSH2 0x1B58 JUMP JUMPDEST PUSH1 0x8 PUSH1 0x20 MSTORE PUSH1 0x0 SWAP1 DUP2 MSTORE PUSH1 0x40 SWAP1 KECCAK256 SLOAD PUSH1 0xFF AND DUP2 JUMP JUMPDEST PUSH2 0x28A PUSH32 0x9F2DF0FED2C77648DE5860A4CC508CD0818C85B8B8A1AB4CEEEF8D981C8956A6 DUP2 JUMP JUMPDEST PUSH2 0x33C PUSH2 0x514 CALLDATASIZE PUSH1 0x4 PUSH2 0x198C JUMP JUMPDEST PUSH2 0xF26 JUMP JUMPDEST PUSH2 0x28A PUSH1 0xC SLOAD DUP2 JUMP JUMPDEST PUSH2 0x260 PUSH2 0x530 CALLDATASIZE PUSH1 0x4 PUSH2 0x1B58 JUMP JUMPDEST PUSH1 0x7 PUSH1 0x20 MSTORE PUSH1 0x0 SWAP1 DUP2 MSTORE PUSH1 0x40 SWAP1 KECCAK256 SLOAD PUSH1 0xFF AND DUP2 JUMP JUMPDEST PUSH2 0x260 PUSH2 0x553 CALLDATASIZE PUSH1 0x4 PUSH2 0x1C01 JUMP JUMPDEST PUSH2 0xF4B JUMP JUMPDEST PUSH2 0x28A PUSH2 0x566 CALLDATASIZE PUSH1 0x4 PUSH2 0x1C01 JUMP JUMPDEST PUSH1 0x1 PUSH1 0x1 PUSH1 0xA0 SHL SUB SWAP2 DUP3 AND PUSH1 0x0 SWAP1 DUP2 MSTORE PUSH1 0x1 PUSH1 0x20 SWAP1 DUP2 MSTORE PUSH1 0x40 DUP1 DUP4 KECCAK256 SWAP4 SWAP1 SWAP5 AND DUP3 MSTORE SWAP2 SWAP1 SWAP2 MSTORE KECCAK256 SLOAD SWAP1 JUMP JUMPDEST PUSH1 0x0 PUSH1 0x1 PUSH1 0x1 PUSH1 0xE0 SHL SUB NOT DUP3 AND PUSH4 0x7965DB0B PUSH1 0xE0 SHL EQ DUP1 PUSH2 0x5C2 JUMPI POP PUSH4 0x1FFC9A7 PUSH1 0xE0 SHL PUSH1 0x1 PUSH1 0x1 PUSH1 0xE0 SHL SUB NOT DUP4 AND EQ JUMPDEST SWAP3 SWAP2 POP POP JUMP JUMPDEST PUSH1 0x60 PUSH1 0x3 DUP1 SLOAD PUSH2 0x5D7 SWAP1 PUSH2 0x1C2B JUMP JUMPDEST DUP1 PUSH1 0x1F ADD PUSH1 0x20 DUP1 SWAP2 DIV MUL PUSH1 0x20 ADD PUSH1 0x40 MLOAD SWAP1 DUP2 ADD PUSH1 0x40 MSTORE DUP1 SWAP3 SWAP2 SWAP1 DUP2 DUP2 MSTORE PUSH1 0x20 ADD DUP3 DUP1 SLOAD PUSH2 0x603 SWAP1 PUSH2 0x1C2B JUMP JUMPDEST DUP1 ISZERO PUSH2 0x650 JUMPI DUP1 PUSH1 0x1F LT PUSH2 0x625 JUMPI PUSH2 0x100 DUP1 DUP4 SLOAD DIV MUL DUP4 MSTORE SWAP2 PUSH1 0x20 ADD SWAP2 PUSH2 0x650 JUMP JUMPDEST DUP3 ADD SWAP2 SWAP1 PUSH1 0x0 MSTORE PUSH1 0x20 PUSH1 0x0 KECCAK256 SWAP1 JUMPDEST DUP2 SLOAD DUP2 MSTORE SWAP1 PUSH1 0x1 ADD SWAP1 PUSH1 0x20 ADD DUP1 DUP4 GT PUSH2 0x633 JUMPI DUP3 SWAP1 SUB PUSH1 0x1F AND DUP3 ADD SWAP2 JUMPDEST POP POP POP POP POP SWAP1 POP SWAP1 JUMP JUMPDEST PUSH1 0x0 CALLER PUSH2 0x668 DUP2 DUP6 DUP6 PUSH2 0xFEB JUMP JUMPDEST POP PUSH1 0x1 SWAP4 SWAP3 POP POP POP JUMP JUMPDEST PUSH1 0x0 CALLER PUSH2 0x680 DUP6 DUP3 DUP6 PUSH2 0xFF8 JUMP JUMPDEST PUSH2 0x68B DUP6 DUP6 DUP6 PUSH2 0x1071 JUMP JUMPDEST POP PUSH1 0x1 SWAP5 SWAP4 POP POP POP POP JUMP JUMPDEST PUSH1 0xD DUP2 DUP2 SLOAD DUP2 LT PUSH2 0x6A6 JUMPI PUSH1 0x0 DUP1 REVERT JUMPDEST PUSH1 0x0 SWAP2 DUP3 MSTORE PUSH1 0x20 SWAP1 SWAP2 KECCAK256 ADD SLOAD PUSH1 0x1 PUSH1 0x1 PUSH1 0xA0 SHL SUB AND SWAP1 POP DUP2 JUMP JUMPDEST PUSH1 0x0 DUP3 DUP2 MSTORE PUSH1 0x5 PUSH1 0x20 MSTORE PUSH1 0x40 SWAP1 KECCAK256 PUSH1 0x1 ADD SLOAD PUSH2 0x6DB DUP2 PUSH2 0x10D0 JUMP JUMPDEST PUSH2 0x6E5 DUP4 DUP4 PUSH2 0x10DA JUMP JUMPDEST POP POP POP POP JUMP JUMPDEST PUSH1 0x1 PUSH1 0x1 PUSH1 0xA0 SHL SUB DUP2 AND CALLER EQ PUSH2 0x714 JUMPI PUSH1 0x40 MLOAD PUSH4 0x334BD919 PUSH1 0xE1 SHL DUP2 MSTORE PUSH1 0x4 ADD PUSH1 0x40 MLOAD DUP1 SWAP2 SUB SWAP1 REVERT JUMPDEST PUSH2 0x71E DUP3 DUP3 PUSH2 0x116E JUMP JUMPDEST POP POP POP JUMP JUMPDEST PUSH1 0x0 DUP1 MLOAD PUSH1 0x20 PUSH2 0x1D0A DUP4 CODECOPY DUP2 MLOAD SWAP2 MSTORE PUSH2 0x73B DUP2 PUSH2 0x10D0 JUMP JUMPDEST PUSH1 0x1 PUSH1 0x1 PUSH1 0xA0 SHL SUB DUP6 AND PUSH1 0x0 SWAP1 DUP2 MSTORE PUSH1 0x7 PUSH1 0x20 MSTORE PUSH1 0x40 SWAP1 KECCAK256 SLOAD PUSH1 0xFF AND PUSH2 0x7A8 JUMPI PUSH1 0x40 MLOAD PUSH3 0x461BCD PUSH1 0xE5 SHL DUP2 MSTORE PUSH1 0x20 PUSH1 0x4 DUP3 ADD MSTORE PUSH1 0x1B PUSH1 0x24 DUP3 ADD MSTORE PUSH32 0x4E58543A20746172676574206E6F742077686974656C69737465640000000000 PUSH1 0x44 DUP3 ADD MSTORE PUSH1 0x64 ADD JUMPDEST PUSH1 0x40 MLOAD DUP1 SWAP2 SUB SWAP1 REVERT JUMPDEST PUSH2 0x7B3 DUP7 DUP7 DUP7 PUSH2 0x1071 JUMP JUMPDEST DUP5 PUSH1 0x1 PUSH1 0x1 PUSH1 0xA0 SHL SUB AND DUP7 PUSH1 0x1 PUSH1 0x1 PUSH1 0xA0 SHL SUB AND PUSH32 0xBB53097141337C38A36FED7FAE913304CD0C540E1200DBB4C8C1CEE707F9F2C2 DUP7 DUP7 DUP7 PUSH1 0x40 MLOAD PUSH2 0x7FA SWAP4 SWAP3 SWAP2 SWAP1 PUSH2 0x1C65 JUMP JUMPDEST PUSH1 0x40 MLOAD DUP1 SWAP2 SUB SWAP1 LOG3 POP POP POP POP POP POP JUMP JUMPDEST PUSH1 0x0 DUP1 MLOAD PUSH1 0x20 PUSH2 0x1D2A DUP4 CODECOPY DUP2 MLOAD SWAP2 MSTORE PUSH2 0x822 DUP2 PUSH2 0x10D0 JUMP JUMPDEST PUSH2 0x82A PUSH2 0x11DB JUMP JUMPDEST POP JUMP JUMPDEST PUSH1 0xA DUP1 SLOAD PUSH2 0x83A SWAP1 PUSH2 0x1C2B JUMP JUMPDEST DUP1 PUSH1 0x1F ADD PUSH1 0x20 DUP1 SWAP2 DIV MUL PUSH1 0x20 ADD PUSH1 0x40 MLOAD SWAP1 DUP2 ADD PUSH1 0x40 MSTORE DUP1 SWAP3 SWAP2 SWAP1 DUP2 DUP2 MSTORE PUSH1 0x20 ADD DUP3 DUP1 SLOAD PUSH2 0x866 SWAP1 PUSH2 0x1C2B JUMP JUMPDEST DUP1 ISZERO PUSH2 0x8B3 JUMPI DUP1 PUSH1 0x1F LT PUSH2 0x888 JUMPI PUSH2 0x100 DUP1 DUP4 SLOAD DIV MUL DUP4 MSTORE SWAP2 PUSH1 0x20 ADD SWAP2 PUSH2 0x8B3 JUMP JUMPDEST DUP3 ADD SWAP2 SWAP1 PUSH1 0x0 MSTORE PUSH1 0x20 PUSH1 0x0 KECCAK256 SWAP1 JUMPDEST DUP2 SLOAD DUP2 MSTORE SWAP1 PUSH1 0x1 ADD SWAP1 PUSH1 0x20 ADD DUP1 DUP4 GT PUSH2 0x896 JUMPI DUP3 SWAP1 SUB PUSH1 0x1F AND DUP3 ADD SWAP2 JUMPDEST POP POP POP POP POP DUP2 JUMP JUMPDEST PUSH32 0x9F2DF0FED2C77648DE5860A4CC508CD0818C85B8B8A1AB4CEEEF8D981C8956A6 PUSH2 0x8E5 DUP2 PUSH2 0x10D0 JUMP JUMPDEST PUSH2 0x8ED PUSH2 0x122D JUMP JUMPDEST PUSH1 0x1 PUSH1 0x1 PUSH1 0xA0 SHL SUB DUP4 AND PUSH1 0x0 SWAP1 DUP2 MSTORE PUSH1 0x7 PUSH1 0x20 MSTORE PUSH1 0x40 SWAP1 KECCAK256 SLOAD PUSH1 0xFF AND PUSH2 0x925 JUMPI PUSH1 0x40 MLOAD PUSH3 0x461BCD PUSH1 0xE5 SHL DUP2 MSTORE PUSH1 0x4 ADD PUSH2 0x79F SWAP1 PUSH2 0x1C9B JUMP JUMPDEST PUSH1 0x1 PUSH1 0x1 PUSH1 0xA0 SHL SUB DUP4 AND PUSH1 0x0 SWAP1 DUP2 MSTORE PUSH1 0x8 PUSH1 0x20 MSTORE PUSH1 0x40 SWAP1 KECCAK256 SLOAD PUSH1 0xFF AND ISZERO PUSH2 0x989 JUMPI PUSH1 0x40 MLOAD PUSH3 0x461BCD PUSH1 0xE5 SHL DUP2 MSTORE PUSH1 0x20 PUSH1 0x4 DUP3 ADD MSTORE PUSH1 0x18 PUSH1 0x24 DUP3 ADD MSTORE PUSH24 0x272C2A1D103932B1B4B834B2B73A1034B990333937BD32B7 PUSH1 0x41 SHL PUSH1 0x44 DUP3 ADD MSTORE PUSH1 0x64 ADD PUSH2 0x79F JUMP JUMPDEST PUSH1 0xC SLOAD DUP3 PUSH2 0x996 PUSH1 0x2 SLOAD SWAP1 JUMP JUMPDEST PUSH2 0x9A0 SWAP2 SWAP1 PUSH2 0x1CD2 JUMP JUMPDEST GT ISZERO PUSH2 0x9E8 JUMPI PUSH1 0x40 MLOAD PUSH3 0x461BCD PUSH1 0xE5 SHL DUP2 MSTORE PUSH1 0x20 PUSH1 0x4 DUP3 ADD MSTORE PUSH1 0x17 PUSH1 0x24 DUP3 ADD MSTORE PUSH23 0x4E58543A2065786365656473206D617820737570706C79 PUSH1 0x48 SHL PUSH1 0x44 DUP3 ADD MSTORE PUSH1 0x64 ADD PUSH2 0x79F JUMP JUMPDEST PUSH2 0x9F2 DUP4 DUP4 PUSH2 0x1253 JUMP JUMPDEST PUSH2 0x71E DUP4 PUSH2 0x128D JUMP JUMPDEST PUSH2 0x82A CALLER DUP3 PUSH2 0x1338 JUMP JUMPDEST PUSH1 0x9 DUP1 SLOAD PUSH2 0x83A SWAP1 PUSH2 0x1C2B JUMP JUMPDEST PUSH1 0x60 PUSH1 0xD DUP1 SLOAD DUP1 PUSH1 0x20 MUL PUSH1 0x20 ADD PUSH1 0x40 MLOAD SWAP1 DUP2 ADD PUSH1 0x40 MSTORE DUP1 SWAP3 SWAP2 SWAP1 DUP2 DUP2 MSTORE PUSH1 0x20 ADD DUP3 DUP1 SLOAD DUP1 ISZERO PUSH2 0x650 JUMPI PUSH1 0x20 MUL DUP3 ADD SWAP2 SWAP1 PUSH1 0x0 MSTORE PUSH1 0x20 PUSH1 0x0 KECCAK256 SWAP1 JUMPDEST DUP2 SLOAD PUSH1 0x1 PUSH1 0x1 PUSH1 0xA0 SHL SUB AND DUP2 MSTORE PUSH1 0x1 SWAP1 SWAP2 ADD SWAP1 PUSH1 0x20 ADD DUP1 DUP4 GT PUSH2 0xA4C JUMPI POP POP POP POP POP SWAP1 POP SWAP1 JUMP JUMPDEST PUSH32 0x9F2DF0FED2C77648DE5860A4CC508CD0818C85B8B8A1AB4CEEEF8D981C8956A6 PUSH2 0xA9D DUP2 PUSH2 0x10D0 JUMP JUMPDEST PUSH2 0xAA5 PUSH2 0x122D JUMP JUMPDEST DUP4 DUP3 EQ PUSH2 0xAEB JUMPI PUSH1 0x40 MLOAD PUSH3 0x461BCD PUSH1 0xE5 SHL DUP2 MSTORE PUSH1 0x20 PUSH1 0x4 DUP3 ADD MSTORE PUSH1 0x14 PUSH1 0x24 DUP3 ADD MSTORE PUSH20 0x9CB0A87440D8CADCCEE8D040DAD2E6DAC2E8C6D PUSH1 0x63 SHL PUSH1 0x44 DUP3 ADD MSTORE PUSH1 0x64 ADD PUSH2 0x79F JUMP JUMPDEST PUSH1 0x0 JUMPDEST DUP5 DUP2 LT ISZERO PUSH2 0xC66 JUMPI PUSH1 0x7 PUSH1 0x0 DUP8 DUP8 DUP5 DUP2 DUP2 LT PUSH2 0xB0C JUMPI PUSH2 0xB0C PUSH2 0x1CF3 JUMP JUMPDEST SWAP1 POP PUSH1 0x20 MUL ADD PUSH1 0x20 DUP2 ADD SWAP1 PUSH2 0xB21 SWAP2 SWAP1 PUSH2 0x1B58 JUMP JUMPDEST PUSH1 0x1 PUSH1 0x1 PUSH1 0xA0 SHL SUB AND DUP2 MSTORE PUSH1 0x20 DUP2 ADD SWAP2 SWAP1 SWAP2 MSTORE PUSH1 0x40 ADD PUSH1 0x0 KECCAK256 SLOAD PUSH1 0xFF AND PUSH2 0xB5A JUMPI PUSH1 0x40 MLOAD PUSH3 0x461BCD PUSH1 0xE5 SHL DUP2 MSTORE PUSH1 0x4 ADD PUSH2 0x79F SWAP1 PUSH2 0x1C9B JUMP JUMPDEST PUSH1 0x8 PUSH1 0x0 DUP8 DUP8 DUP5 DUP2 DUP2 LT PUSH2 0xB70 JUMPI PUSH2 0xB70 PUSH2 0x1CF3 JUMP JUMPDEST SWAP1 POP PUSH1 0x20 MUL ADD PUSH1 0x20 DUP2 ADD SWAP1 PUSH2 0xB85 SWAP2 SWAP1 PUSH2 0x1B58 JUMP JUMPDEST PUSH1 0x1 PUSH1 0x1 PUSH1 0xA0 SHL SUB AND DUP2 MSTORE PUSH1 0x20 DUP2 ADD SWAP2 SWAP1 SWAP2 MSTORE PUSH1 0x40 ADD PUSH1 0x0 KECCAK256 SLOAD PUSH1 0xFF AND ISZERO PUSH2 0xBE7 JUMPI PUSH1 0x40 MLOAD PUSH3 0x461BCD PUSH1 0xE5 SHL DUP2 MSTORE PUSH1 0x20 PUSH1 0x4 DUP3 ADD MSTORE PUSH1 0x15 PUSH1 0x24 DUP3 ADD MSTORE PUSH21 0x272C2A1D103932B1B4B834B2B73A10333937BD32B7 PUSH1 0x59 SHL PUSH1 0x44 DUP3 ADD MSTORE PUSH1 0x64 ADD PUSH2 0x79F JUMP JUMPDEST PUSH2 0xC2F DUP7 DUP7 DUP4 DUP2 DUP2 LT PUSH2 0xBFC JUMPI PUSH2 0xBFC PUSH2 0x1CF3 JUMP JUMPDEST SWAP1 POP PUSH1 0x20 MUL ADD PUSH1 0x20 DUP2 ADD SWAP1 PUSH2 0xC11 SWAP2 SWAP1 PUSH2 0x1B58 JUMP JUMPDEST DUP6 DUP6 DUP5 DUP2 DUP2 LT PUSH2 0xC23 JUMPI PUSH2 0xC23 PUSH2 0x1CF3 JUMP JUMPDEST SWAP1 POP PUSH1 0x20 MUL ADD CALLDATALOAD PUSH2 0x1253 JUMP JUMPDEST PUSH2 0xC5E DUP7 DUP7 DUP4 DUP2 DUP2 LT PUSH2 0xC44 JUMPI PUSH2 0xC44 PUSH2 0x1CF3 JUMP JUMPDEST SWAP1 POP PUSH1 0x20 MUL ADD PUSH1 0x20 DUP2 ADD SWAP1 PUSH2 0xC59 SWAP2 SWAP1 PUSH2 0x1B58 JUMP JUMPDEST PUSH2 0x128D JUMP JUMPDEST PUSH1 0x1 ADD PUSH2 0xAEE JUMP JUMPDEST POP PUSH1 0xC SLOAD PUSH1 0x2 SLOAD GT ISZERO PUSH2 0xCB5 JUMPI PUSH1 0x40 MLOAD PUSH3 0x461BCD PUSH1 0xE5 SHL DUP2 MSTORE PUSH1 0x20 PUSH1 0x4 DUP3 ADD MSTORE PUSH1 0x17 PUSH1 0x24 DUP3 ADD MSTORE PUSH23 0x4E58543A2065786365656473206D617820737570706C79 PUSH1 0x48 SHL PUSH1 0x44 DUP3 ADD MSTORE PUSH1 0x64 ADD PUSH2 0x79F JUMP JUMPDEST POP POP POP POP POP JUMP JUMPDEST PUSH1 0x0 DUP1 MLOAD PUSH1 0x20 PUSH2 0x1D2A DUP4 CODECOPY DUP2 MLOAD SWAP2 MSTORE PUSH2 0xCD4 DUP2 PUSH2 0x10D0 JUMP JUMPDEST PUSH2 0x71E DUP4 DUP4 PUSH2 0x1338 JUMP JUMPDEST PUSH1 0xB DUP1 SLOAD PUSH2 0x83A SWAP1 PUSH2 0x1C2B JUMP JUMPDEST PUSH1 0x0 DUP1 MLOAD PUSH1 0x20 PUSH2 0x1D2A DUP4 CODECOPY DUP2 MLOAD SWAP2 MSTORE PUSH2 0xD03 DUP2 PUSH2 0x10D0 JUMP JUMPDEST PUSH2 0x82A PUSH2 0x136E JUMP JUMPDEST PUSH1 0x0 SWAP2 DUP3 MSTORE PUSH1 0x5 PUSH1 0x20 SWAP1 DUP2 MSTORE PUSH1 0x40 DUP1 DUP5 KECCAK256 PUSH1 0x1 PUSH1 0x1 PUSH1 0xA0 SHL SUB SWAP4 SWAP1 SWAP4 AND DUP5 MSTORE SWAP2 SWAP1 MSTORE SWAP1 KECCAK256 SLOAD PUSH1 0xFF AND SWAP1 JUMP JUMPDEST PUSH1 0x0 DUP1 MLOAD PUSH1 0x20 PUSH2 0x1D0A DUP4 CODECOPY DUP2 MLOAD SWAP2 MSTORE PUSH2 0xD4E DUP2 PUSH2 0x10D0 JUMP JUMPDEST PUSH1 0x1 PUSH1 0x1 PUSH1 0xA0 SHL SUB DUP4 AND PUSH1 0x0 DUP2 DUP2 MSTORE PUSH1 0x7 PUSH1 0x20 SWAP1 DUP2 MSTORE PUSH1 0x40 SWAP2 DUP3 SWAP1 KECCAK256 DUP1 SLOAD PUSH1 0xFF NOT AND DUP7 ISZERO ISZERO SWAP1 DUP2 OR SWAP1 SWAP2 SSTORE SWAP2 MLOAD SWAP2 DUP3 MSTORE PUSH32 0xA54714518C5D275FDCD3D2A461E4858E4E8CB04FB93CD0BCA9D6D34115F26440 SWAP2 ADD JUMPDEST PUSH1 0x40 MLOAD DUP1 SWAP2 SUB SWAP1 LOG2 POP POP POP JUMP JUMPDEST PUSH1 0x60 PUSH1 0x4 DUP1 SLOAD PUSH2 0x5D7 SWAP1 PUSH2 0x1C2B JUMP JUMPDEST PUSH1 0x0 CALLER PUSH2 0x668 DUP2 DUP6 DUP6 PUSH2 0x1071 JUMP JUMPDEST PUSH1 0x0 DUP1 MLOAD PUSH1 0x20 PUSH2 0x1D0A DUP4 CODECOPY DUP2 MLOAD SWAP2 MSTORE PUSH2 0xDE4 DUP2 PUSH2 0x10D0 JUMP JUMPDEST PUSH1 0x1 PUSH1 0x1 PUSH1 0xA0 SHL SUB DUP4 AND PUSH1 0x0 DUP2 DUP2 MSTORE PUSH1 0x8 PUSH1 0x20 SWAP1 DUP2 MSTORE PUSH1 0x40 SWAP2 DUP3 SWAP1 KECCAK256 DUP1 SLOAD PUSH1 0xFF NOT AND DUP7 ISZERO ISZERO SWAP1 DUP2 OR SWAP1 SWAP2 SSTORE SWAP2 MLOAD SWAP2 DUP3 MSTORE PUSH32 0x713EB400302CEBAC61F82EB8DE5051D38458517FFAC43AE45F4A9FD5D09EE698 SWAP2 ADD PUSH2 0xDA2 JUMP JUMPDEST PUSH1 0x0 DUP1 MLOAD PUSH1 0x20 PUSH2 0x1D0A DUP4 CODECOPY DUP2 MLOAD SWAP2 MSTORE PUSH2 0xE54 DUP2 PUSH2 0x10D0 JUMP JUMPDEST PUSH1 0x0 JUMPDEST DUP4 DUP2 LT ISZERO PUSH2 0xCB5 JUMPI DUP3 PUSH1 0x7 PUSH1 0x0 DUP8 DUP8 DUP6 DUP2 DUP2 LT PUSH2 0xE76 JUMPI PUSH2 0xE76 PUSH2 0x1CF3 JUMP JUMPDEST SWAP1 POP PUSH1 0x20 MUL ADD PUSH1 0x20 DUP2 ADD SWAP1 PUSH2 0xE8B SWAP2 SWAP1 PUSH2 0x1B58 JUMP JUMPDEST PUSH1 0x1 PUSH1 0x1 PUSH1 0xA0 SHL SUB AND DUP2 MSTORE PUSH1 0x20 DUP2 ADD SWAP2 SWAP1 SWAP2 MSTORE PUSH1 0x40 ADD PUSH1 0x0 KECCAK256 DUP1 SLOAD PUSH1 0xFF NOT AND SWAP2 ISZERO ISZERO SWAP2 SWAP1 SWAP2 OR SWAP1 SSTORE DUP5 DUP5 DUP3 DUP2 DUP2 LT PUSH2 0xEC5 JUMPI PUSH2 0xEC5 PUSH2 0x1CF3 JUMP JUMPDEST SWAP1 POP PUSH1 0x20 MUL ADD PUSH1 0x20 DUP2 ADD SWAP1 PUSH2 0xEDA SWAP2 SWAP1 PUSH2 0x1B58 JUMP JUMPDEST PUSH1 0x1 PUSH1 0x1 PUSH1 0xA0 SHL SUB AND PUSH32 0xA54714518C5D275FDCD3D2A461E4858E4E8CB04FB93CD0BCA9D6D34115F26440 DUP5 PUSH1 0x40 MLOAD PUSH2 0xF16 SWAP2 ISZERO ISZERO DUP2 MSTORE PUSH1 0x20 ADD SWAP1 JUMP JUMPDEST PUSH1 0x40 MLOAD DUP1 SWAP2 SUB SWAP1 LOG2 PUSH1 0x1 ADD PUSH2 0xE57 JUMP JUMPDEST PUSH1 0x0 DUP3 DUP2 MSTORE PUSH1 0x5 PUSH1 0x20 MSTORE PUSH1 0x40 SWAP1 KECCAK256 PUSH1 0x1 ADD SLOAD PUSH2 0xF41 DUP2 PUSH2 0x10D0 JUMP JUMPDEST PUSH2 0x6E5 DUP4 DUP4 PUSH2 0x116E JUMP JUMPDEST PUSH1 0x1 PUSH1 0x1 PUSH1 0xA0 SHL SUB DUP3 AND PUSH1 0x0 SWAP1 DUP2 MSTORE PUSH1 0x7 PUSH1 0x20 MSTORE PUSH1 0x40 DUP2 KECCAK256 SLOAD PUSH1 0xFF AND DUP1 ISZERO PUSH2 0xF8B JUMPI POP PUSH1 0x1 PUSH1 0x1 PUSH1 0xA0 SHL SUB DUP3 AND PUSH1 0x0 SWAP1 DUP2 MSTORE PUSH1 0x7 PUSH1 0x20 MSTORE PUSH1 0x40 SWAP1 KECCAK256 SLOAD PUSH1 0xFF AND JUMPDEST DUP1 ISZERO PUSH2 0xFB0 JUMPI POP PUSH1 0x1 PUSH1 0x1 PUSH1 0xA0 SHL SUB DUP4 AND PUSH1 0x0 SWAP1 DUP2 MSTORE PUSH1 0x8 PUSH1 0x20 MSTORE PUSH1 0x40 SWAP1 KECCAK256 SLOAD PUSH1 0xFF AND ISZERO JUMPDEST DUP1 ISZERO PUSH2 0xFD5 JUMPI POP PUSH1 0x1 PUSH1 0x1 PUSH1 0xA0 SHL SUB DUP3 AND PUSH1 0x0 SWAP1 DUP2 MSTORE PUSH1 0x8 PUSH1 0x20 MSTORE PUSH1 0x40 SWAP1 KECCAK256 SLOAD PUSH1 0xFF AND ISZERO JUMPDEST DUP1 ISZERO PUSH2 0xFE4 JUMPI POP PUSH1 0x6 SLOAD PUSH1 0xFF AND ISZERO JUMPDEST SWAP4 SWAP3 POP POP POP JUMP JUMPDEST PUSH2 0x71E DUP4 DUP4 DUP4 PUSH1 0x1 PUSH2 0x13AB JUMP JUMPDEST PUSH1 0x1 PUSH1 0x1 PUSH1 0xA0 SHL SUB DUP4 DUP2 AND PUSH1 0x0 SWAP1 DUP2 MSTORE PUSH1 0x1 PUSH1 0x20 SWAP1 DUP2 MSTORE PUSH1 0x40 DUP1 DUP4 KECCAK256 SWAP4 DUP7 AND DUP4 MSTORE SWAP3 SWAP1 MSTORE KECCAK256 SLOAD PUSH1 0x0 NOT DUP2 LT ISZERO PUSH2 0x6E5 JUMPI DUP2 DUP2 LT ISZERO PUSH2 0x1062 JUMPI PUSH1 0x40 MLOAD PUSH4 0x7DC7A0D9 PUSH1 0xE1 SHL DUP2 MSTORE PUSH1 0x1 PUSH1 0x1 PUSH1 0xA0 SHL SUB DUP5 AND PUSH1 0x4 DUP3 ADD MSTORE PUSH1 0x24 DUP2 ADD DUP3 SWAP1 MSTORE PUSH1 0x44 DUP2 ADD DUP4 SWAP1 MSTORE PUSH1 0x64 ADD PUSH2 0x79F JUMP JUMPDEST PUSH2 0x6E5 DUP5 DUP5 DUP5 DUP5 SUB PUSH1 0x0 PUSH2 0x13AB JUMP JUMPDEST PUSH1 0x1 PUSH1 0x1 PUSH1 0xA0 SHL SUB DUP4 AND PUSH2 0x109B JUMPI PUSH1 0x40 MLOAD PUSH4 0x4B637E8F PUSH1 0xE1 SHL DUP2 MSTORE PUSH1 0x0 PUSH1 0x4 DUP3 ADD MSTORE PUSH1 0x24 ADD PUSH2 0x79F JUMP JUMPDEST PUSH1 0x1 PUSH1 0x1 PUSH1 0xA0 SHL SUB DUP3 AND PUSH2 0x10C5 JUMPI PUSH1 0x40 MLOAD PUSH4 0xEC442F05 PUSH1 0xE0 SHL DUP2 MSTORE PUSH1 0x0 PUSH1 0x4 DUP3 ADD MSTORE PUSH1 0x24 ADD PUSH2 0x79F JUMP JUMPDEST PUSH2 0x71E DUP4 DUP4 DUP4 PUSH2 0x1480 JUMP JUMPDEST PUSH2 0x82A DUP2 CALLER PUSH2 0x16F2 JUMP JUMPDEST PUSH1 0x0 PUSH2 0x10E6 DUP4 DUP4 PUSH2 0xD0B JUMP JUMPDEST PUSH2 0x1166 JUMPI PUSH1 0x0 DUP4 DUP2 MSTORE PUSH1 0x5 PUSH1 0x20 SWAP1 DUP2 MSTORE PUSH1 0x40 DUP1 DUP4 KECCAK256 PUSH1 0x1 PUSH1 0x1 PUSH1 0xA0 SHL SUB DUP7 AND DUP5 MSTORE SWAP1 SWAP2 MSTORE SWAP1 KECCAK256 DUP1 SLOAD PUSH1 0xFF NOT AND PUSH1 0x1 OR SWAP1 SSTORE PUSH2 0x111E CALLER SWAP1 JUMP JUMPDEST PUSH1 0x1 PUSH1 0x1 PUSH1 0xA0 SHL SUB AND DUP3 PUSH1 0x1 PUSH1 0x1 PUSH1 0xA0 SHL SUB AND DUP5 PUSH32 0x2F8788117E7EFF1D82E926EC794901D17C78024A50270940304540A733656F0D PUSH1 0x40 MLOAD PUSH1 0x40 MLOAD DUP1 SWAP2 SUB SWAP1 LOG4 POP PUSH1 0x1 PUSH2 0x5C2 JUMP JUMPDEST POP PUSH1 0x0 PUSH2 0x5C2 JUMP JUMPDEST PUSH1 0x0 PUSH2 0x117A DUP4 DUP4 PUSH2 0xD0B JUMP JUMPDEST ISZERO PUSH2 0x1166 JUMPI PUSH1 0x0 DUP4 DUP2 MSTORE PUSH1 0x5 PUSH1 0x20 SWAP1 DUP2 MSTORE PUSH1 0x40 DUP1 DUP4 KECCAK256 PUSH1 0x1 PUSH1 0x1 PUSH1 0xA0 SHL SUB DUP7 AND DUP1 DUP6 MSTORE SWAP3 MSTORE DUP1 DUP4 KECCAK256 DUP1 SLOAD PUSH1 0xFF NOT AND SWAP1 SSTORE MLOAD CALLER SWAP3 DUP7 SWAP2 PUSH32 0xF6391F5C32D9C69D2A47EA670B442974B53935D1EDC7FD64EB21E047A839171B SWAP2 SWAP1 LOG4 POP PUSH1 0x1 PUSH2 0x5C2 JUMP JUMPDEST PUSH2 0x11E3 PUSH2 0x172B JUMP JUMPDEST PUSH1 0x6 DUP1 SLOAD PUSH1 0xFF NOT AND SWAP1 SSTORE PUSH32 0x5DB9EE0A495BF2E6FF9C91A7834C1BA4FDD244A5E8AA4E537BD38AEAE4B073AA CALLER JUMPDEST PUSH1 0x40 MLOAD PUSH1 0x1 PUSH1 0x1 PUSH1 0xA0 SHL SUB SWAP1 SWAP2 AND DUP2 MSTORE PUSH1 0x20 ADD PUSH1 0x40 MLOAD DUP1 SWAP2 SUB SWAP1 LOG1 JUMP JUMPDEST PUSH1 0x6 SLOAD PUSH1 0xFF AND ISZERO PUSH2 0x1251 JUMPI PUSH1 0x40 MLOAD PUSH4 0xD93C0665 PUSH1 0xE0 SHL DUP2 MSTORE PUSH1 0x4 ADD PUSH1 0x40 MLOAD DUP1 SWAP2 SUB SWAP1 REVERT JUMPDEST JUMP JUMPDEST PUSH1 0x1 PUSH1 0x1 PUSH1 0xA0 SHL SUB DUP3 AND PUSH2 0x127D JUMPI PUSH1 0x40 MLOAD PUSH4 0xEC442F05 PUSH1 0xE0 SHL DUP2 MSTORE PUSH1 0x0 PUSH1 0x4 DUP3 ADD MSTORE PUSH1 0x24 ADD PUSH2 0x79F JUMP JUMPDEST PUSH2 0x1289 PUSH1 0x0 DUP4 DUP4 PUSH2 0x1480 JUMP JUMPDEST POP POP JUMP JUMPDEST PUSH1 0x1 PUSH1 0x1 PUSH1 0xA0 SHL SUB DUP2 AND PUSH1 0x0 SWAP1 DUP2 MSTORE PUSH1 0xE PUSH1 0x20 MSTORE PUSH1 0x40 SWAP1 KECCAK256 SLOAD PUSH1 0xFF AND ISZERO DUP1 ISZERO PUSH2 0x12CC JUMPI POP PUSH1 0x1 PUSH1 0x1 PUSH1 0xA0 SHL SUB DUP2 AND PUSH1 0x0 SWAP1 DUP2 MSTORE PUSH1 0x20 DUP2 SWAP1 MSTORE PUSH1 0x40 DUP2 KECCAK256 SLOAD GT JUMPDEST ISZERO PUSH2 0x82A JUMPI PUSH1 0xD DUP1 SLOAD PUSH1 0x1 DUP2 DUP2 ADD SWAP1 SWAP3 SSTORE PUSH32 0xD7B6990105719101DABEB77144F2A3385C8033ACD3AF97E9423A695E81AD1EB5 ADD DUP1 SLOAD PUSH1 0x1 PUSH1 0x1 PUSH1 0xA0 SHL SUB DUP5 AND PUSH1 0x1 PUSH1 0x1 PUSH1 0xA0 SHL SUB NOT SWAP1 SWAP2 AND DUP2 OR SWAP1 SWAP2 SSTORE PUSH1 0x0 SWAP1 DUP2 MSTORE PUSH1 0xE PUSH1 0x20 MSTORE PUSH1 0x40 SWAP1 KECCAK256 DUP1 SLOAD PUSH1 0xFF NOT AND SWAP1 SWAP2 OR SWAP1 SSTORE POP JUMP JUMPDEST PUSH1 0x1 PUSH1 0x1 PUSH1 0xA0 SHL SUB DUP3 AND PUSH2 0x1362 JUMPI PUSH1 0x40 MLOAD PUSH4 0x4B637E8F PUSH1 0xE1 SHL DUP2 MSTORE PUSH1 0x0 PUSH1 0x4 DUP3 ADD MSTORE PUSH1 0x24 ADD PUSH2 0x79F JUMP JUMPDEST PUSH2 0x1289 DUP3 PUSH1 0x0 DUP4 PUSH2 0x1480 JUMP JUMPDEST PUSH2 0x1376 PUSH2 0x122D JUMP JUMPDEST PUSH1 0x6 DUP1 SLOAD PUSH1 0xFF NOT AND PUSH1 0x1 OR SWAP1 SSTORE PUSH32 0x62E78CEA01BEE320CD4E420270B5EA74000D11B0C9F74754EBDBFC544B05A258 PUSH2 0x1210 CALLER SWAP1 JUMP JUMPDEST PUSH1 0x1 PUSH1 0x1 PUSH1 0xA0 SHL SUB DUP5 AND PUSH2 0x13D5 JUMPI PUSH1 0x40 MLOAD PUSH4 0xE602DF05 PUSH1 0xE0 SHL DUP2 MSTORE PUSH1 0x0 PUSH1 0x4 DUP3 ADD MSTORE PUSH1 0x24 ADD PUSH2 0x79F JUMP JUMPDEST PUSH1 0x1 PUSH1 0x1 PUSH1 0xA0 SHL SUB DUP4 AND PUSH2 0x13FF JUMPI PUSH1 0x40 MLOAD PUSH4 0x4A1406B1 PUSH1 0xE1 SHL DUP2 MSTORE PUSH1 0x0 PUSH1 0x4 DUP3 ADD MSTORE PUSH1 0x24 ADD PUSH2 0x79F JUMP JUMPDEST PUSH1 0x1 PUSH1 0x1 PUSH1 0xA0 SHL SUB DUP1 DUP6 AND PUSH1 0x0 SWAP1 DUP2 MSTORE PUSH1 0x1 PUSH1 0x20 SWAP1 DUP2 MSTORE PUSH1 0x40 DUP1 DUP4 KECCAK256 SWAP4 DUP8 AND DUP4 MSTORE SWAP3 SWAP1 MSTORE KECCAK256 DUP3 SWAP1 SSTORE DUP1 ISZERO PUSH2 0x6E5 JUMPI DUP3 PUSH1 0x1 PUSH1 0x1 PUSH1 0xA0 SHL SUB AND DUP5 PUSH1 0x1 PUSH1 0x1 PUSH1 0xA0 SHL SUB AND PUSH32 0x8C5BE1E5EBEC7D5BD14F71427D1E84F3DD0314C0F7B2291E5B200AC8C7C3B925 DUP5 PUSH1 0x40 MLOAD PUSH2 0x1472 SWAP2 DUP2 MSTORE PUSH1 0x20 ADD SWAP1 JUMP JUMPDEST PUSH1 0x40 MLOAD DUP1 SWAP2 SUB SWAP1 LOG3 POP POP POP POP JUMP JUMPDEST PUSH1 0x1 PUSH1 0x1 PUSH1 0xA0 SHL SUB DUP4 AND ISZERO DUP1 ISZERO SWAP1 PUSH2 0x14A0 JUMPI POP PUSH1 0x1 PUSH1 0x1 PUSH1 0xA0 SHL SUB DUP3 AND ISZERO ISZERO JUMPDEST ISZERO PUSH2 0x16CF JUMPI PUSH1 0x6 SLOAD PUSH1 0xFF AND ISZERO PUSH2 0x14F0 JUMPI PUSH1 0x40 MLOAD PUSH3 0x461BCD PUSH1 0xE5 SHL DUP2 MSTORE PUSH1 0x20 PUSH1 0x4 DUP3 ADD MSTORE PUSH1 0x15 PUSH1 0x24 DUP3 ADD MSTORE PUSH21 0x1396150E881D1C985B9CD9995C9CC81C185D5CD959 PUSH1 0x5A SHL PUSH1 0x44 DUP3 ADD MSTORE PUSH1 0x64 ADD PUSH2 0x79F JUMP JUMPDEST PUSH1 0x1 PUSH1 0x1 PUSH1 0xA0 SHL SUB DUP4 AND PUSH1 0x0 SWAP1 DUP2 MSTORE PUSH1 0x7 PUSH1 0x20 MSTORE PUSH1 0x40 SWAP1 KECCAK256 SLOAD PUSH1 0xFF AND PUSH2 0x1558 JUMPI PUSH1 0x40 MLOAD PUSH3 0x461BCD PUSH1 0xE5 SHL DUP2 MSTORE PUSH1 0x20 PUSH1 0x4 DUP3 ADD MSTORE PUSH1 0x1B PUSH1 0x24 DUP3 ADD MSTORE PUSH32 0x4E58543A2073656E646572206E6F742077686974656C69737465640000000000 PUSH1 0x44 DUP3 ADD MSTORE PUSH1 0x64 ADD PUSH2 0x79F JUMP JUMPDEST PUSH1 0x1 PUSH1 0x1 PUSH1 0xA0 SHL SUB DUP3 AND PUSH1 0x0 SWAP1 DUP2 MSTORE PUSH1 0x7 PUSH1 0x20 MSTORE PUSH1 0x40 SWAP1 KECCAK256 SLOAD PUSH1 0xFF AND PUSH2 0x1590 JUMPI PUSH1 0x40 MLOAD PUSH3 0x461BCD PUSH1 0xE5 SHL DUP2 MSTORE PUSH1 0x4 ADD PUSH2 0x79F SWAP1 PUSH2 0x1C9B JUMP JUMPDEST PUSH1 0x1 PUSH1 0x1 PUSH1 0xA0 SHL SUB DUP4 AND PUSH1 0x0 SWAP1 DUP2 MSTORE PUSH1 0x8 PUSH1 0x20 MSTORE PUSH1 0x40 SWAP1 KECCAK256 SLOAD PUSH1 0xFF AND ISZERO PUSH2 0x15F1 JUMPI PUSH1 0x40 MLOAD PUSH3 0x461BCD PUSH1 0xE5 SHL DUP2 MSTORE PUSH1 0x20 PUSH1 0x4 DUP3 ADD MSTORE PUSH1 0x15 PUSH1 0x24 DUP3 ADD MSTORE PUSH21 0x272C2A1D1039B2B73232B91034B990333937BD32B7 PUSH1 0x59 SHL PUSH1 0x44 DUP3 ADD MSTORE PUSH1 0x64 ADD PUSH2 0x79F JUMP JUMPDEST PUSH1 0x1 PUSH1 0x1 PUSH1 0xA0 SHL SUB DUP3 AND PUSH1 0x0 SWAP1 DUP2 MSTORE PUSH1 0x8 PUSH1 0x20 MSTORE PUSH1 0x40 SWAP1 KECCAK256 SLOAD PUSH1 0xFF AND ISZERO PUSH2 0x1655 JUMPI PUSH1 0x40 MLOAD PUSH3 0x461BCD PUSH1 0xE5 SHL DUP2 MSTORE PUSH1 0x20 PUSH1 0x4 DUP3 ADD MSTORE PUSH1 0x18 PUSH1 0x24 DUP3 ADD MSTORE PUSH24 0x272C2A1D103932B1B4B834B2B73A1034B990333937BD32B7 PUSH1 0x41 SHL PUSH1 0x44 DUP3 ADD MSTORE PUSH1 0x64 ADD PUSH2 0x79F JUMP JUMPDEST DUP2 PUSH1 0x1 PUSH1 0x1 PUSH1 0xA0 SHL SUB AND DUP4 PUSH1 0x1 PUSH1 0x1 PUSH1 0xA0 SHL SUB AND PUSH32 0xECA16393BF801AB7A64235FED78748AC46CD7DF230A0F8EDB3222CD33BF7B634 PUSH1 0x1 PUSH1 0x40 MLOAD PUSH2 0x16C6 SWAP2 ISZERO ISZERO DUP2 MSTORE PUSH1 0x40 PUSH1 0x20 DUP3 ADD DUP2 SWAP1 MSTORE PUSH1 0x11 SWAP1 DUP3 ADD MSTORE PUSH17 0x151C985B9CD9995C88185C1C1C9BDD9959 PUSH1 0x7A SHL PUSH1 0x60 DUP3 ADD MSTORE PUSH1 0x80 ADD SWAP1 JUMP JUMPDEST PUSH1 0x40 MLOAD DUP1 SWAP2 SUB SWAP1 LOG3 JUMPDEST PUSH2 0x16DA DUP4 DUP4 DUP4 PUSH2 0x174E JUMP JUMPDEST PUSH1 0x1 PUSH1 0x1 PUSH1 0xA0 SHL SUB DUP3 AND ISZERO PUSH2 0x71E JUMPI PUSH2 0x71E DUP3 PUSH2 0x128D JUMP JUMPDEST PUSH2 0x16FC DUP3 DUP3 PUSH2 0xD0B JUMP JUMPDEST PUSH2 0x1289 JUMPI PUSH1 0x40 MLOAD PUSH4 0xE2517D3F PUSH1 0xE0 SHL DUP2 MSTORE PUSH1 0x1 PUSH1 0x1 PUSH1 0xA0 SHL SUB DUP3 AND PUSH1 0x4 DUP3 ADD MSTORE PUSH1 0x24 DUP2 ADD DUP4 SWAP1 MSTORE PUSH1 0x44 ADD PUSH2 0x79F JUMP JUMPDEST PUSH1 0x6 SLOAD PUSH1 0xFF AND PUSH2 0x1251 JUMPI PUSH1 0x40 MLOAD PUSH4 0x8DFC202B PUSH1 0xE0 SHL DUP2 MSTORE PUSH1 0x4 ADD PUSH1 0x40 MLOAD DUP1 SWAP2 SUB SWAP1 REVERT JUMPDEST PUSH1 0x1 PUSH1 0x1 PUSH1 0xA0 SHL SUB DUP4 AND PUSH2 0x1779 JUMPI DUP1 PUSH1 0x2 PUSH1 0x0 DUP3 DUP3 SLOAD PUSH2 0x176E SWAP2 SWAP1 PUSH2 0x1CD2 JUMP JUMPDEST SWAP1 SWAP2 SSTORE POP PUSH2 0x17EB SWAP1 POP JUMP JUMPDEST PUSH1 0x1 PUSH1 0x1 PUSH1 0xA0 SHL SUB DUP4 AND PUSH1 0x0 SWAP1 DUP2 MSTORE PUSH1 0x20 DUP2 SWAP1 MSTORE PUSH1 0x40 SWAP1 KECCAK256 SLOAD DUP2 DUP2 LT ISZERO PUSH2 0x17CC JUMPI PUSH1 0x40 MLOAD PUSH4 0x391434E3 PUSH1 0xE2 SHL DUP2 MSTORE PUSH1 0x1 PUSH1 0x1 PUSH1 0xA0 SHL SUB DUP6 AND PUSH1 0x4 DUP3 ADD MSTORE PUSH1 0x24 DUP2 ADD DUP3 SWAP1 MSTORE PUSH1 0x44 DUP2 ADD DUP4 SWAP1 MSTORE PUSH1 0x64 ADD PUSH2 0x79F JUMP JUMPDEST PUSH1 0x1 PUSH1 0x1 PUSH1 0xA0 SHL SUB DUP5 AND PUSH1 0x0 SWAP1 DUP2 MSTORE PUSH1 0x20 DUP2 SWAP1 MSTORE PUSH1 0x40 SWAP1 KECCAK256 SWAP1 DUP3 SWAP1 SUB SWAP1 SSTORE JUMPDEST PUSH1 0x1 PUSH1 0x1 PUSH1 0xA0 SHL SUB DUP3 AND PUSH2 0x1807 JUMPI PUSH1 0x2 DUP1 SLOAD DUP3 SWAP1 SUB SWAP1 SSTORE PUSH2 0x1826 JUMP JUMPDEST PUSH1 0x1 PUSH1 0x1 PUSH1 0xA0 SHL SUB DUP3 AND PUSH1 0x0 SWAP1 DUP2 MSTORE PUSH1 0x20 DUP2 SWAP1 MSTORE PUSH1 0x40 SWAP1 KECCAK256 DUP1 SLOAD DUP3 ADD SWAP1 SSTORE JUMPDEST DUP2 PUSH1 0x1 PUSH1 0x1 PUSH1 0xA0 SHL SUB AND DUP4 PUSH1 0x1 PUSH1 0x1 PUSH1 0xA0 SHL SUB AND PUSH32 0xDDF252AD1BE2C89B69C2B068FC378DAA952BA7F163C4A11628F55A4DF523B3EF DUP4 PUSH1 0x40 MLOAD PUSH2 0x186B SWAP2 DUP2 MSTORE PUSH1 0x20 ADD SWAP1 JUMP JUMPDEST PUSH1 0x40 MLOAD DUP1 SWAP2 SUB SWAP1 LOG3 POP POP POP JUMP JUMPDEST PUSH1 0x0 PUSH1 0x20 DUP3 DUP5 SUB SLT ISZERO PUSH2 0x188A JUMPI PUSH1 0x0 DUP1 REVERT JUMPDEST DUP2 CALLDATALOAD PUSH1 0x1 PUSH1 0x1 PUSH1 0xE0 SHL SUB NOT DUP2 AND DUP2 EQ PUSH2 0xFE4 JUMPI PUSH1 0x0 DUP1 REVERT JUMPDEST PUSH1 0x0 PUSH1 0x20 DUP1 DUP4 MSTORE DUP4 MLOAD DUP1 PUSH1 0x20 DUP6 ADD MSTORE PUSH1 0x0 JUMPDEST DUP2 DUP2 LT ISZERO PUSH2 0x18D0 JUMPI DUP6 DUP2 ADD DUP4 ADD MLOAD DUP6 DUP3 ADD PUSH1 0x40 ADD MSTORE DUP3 ADD PUSH2 0x18B4 JUMP JUMPDEST POP PUSH1 0x0 PUSH1 0x40 DUP3 DUP7 ADD ADD MSTORE PUSH1 0x40 PUSH1 0x1F NOT PUSH1 0x1F DUP4 ADD AND DUP6 ADD ADD SWAP3 POP POP POP SWAP3 SWAP2 POP POP JUMP JUMPDEST DUP1 CALLDATALOAD PUSH1 0x1 PUSH1 0x1 PUSH1 0xA0 SHL SUB DUP2 AND DUP2 EQ PUSH2 0x1908 JUMPI PUSH1 0x0 DUP1 REVERT JUMPDEST SWAP2 SWAP1 POP JUMP JUMPDEST PUSH1 0x0 DUP1 PUSH1 0x40 DUP4 DUP6 SUB SLT ISZERO PUSH2 0x1920 JUMPI PUSH1 0x0 DUP1 REVERT JUMPDEST PUSH2 0x1929 DUP4 PUSH2 0x18F1 JUMP JUMPDEST SWAP5 PUSH1 0x20 SWAP4 SWAP1 SWAP4 ADD CALLDATALOAD SWAP4 POP POP POP JUMP JUMPDEST PUSH1 0x0 DUP1 PUSH1 0x0 PUSH1 0x60 DUP5 DUP7 SUB SLT ISZERO PUSH2 0x194C JUMPI PUSH1 0x0 DUP1 REVERT JUMPDEST PUSH2 0x1955 DUP5 PUSH2 0x18F1 JUMP JUMPDEST SWAP3 POP PUSH2 0x1963 PUSH1 0x20 DUP6 ADD PUSH2 0x18F1 JUMP JUMPDEST SWAP2 POP PUSH1 0x40 DUP5 ADD CALLDATALOAD SWAP1 POP SWAP3 POP SWAP3 POP SWAP3 JUMP JUMPDEST PUSH1 0x0 PUSH1 0x20 DUP3 DUP5 SUB SLT ISZERO PUSH2 0x1985 JUMPI PUSH1 0x0 DUP1 REVERT JUMPDEST POP CALLDATALOAD SWAP2 SWAP1 POP JUMP JUMPDEST PUSH1 0x0 DUP1 PUSH1 0x40 DUP4 DUP6 SUB SLT ISZERO PUSH2 0x199F JUMPI PUSH1 0x0 DUP1 REVERT JUMPDEST DUP3 CALLDATALOAD SWAP2 POP PUSH2 0x19AF PUSH1 0x20 DUP5 ADD PUSH2 0x18F1 JUMP JUMPDEST SWAP1 POP SWAP3 POP SWAP3 SWAP1 POP JUMP JUMPDEST PUSH1 0x0 DUP1 PUSH1 0x0 DUP1 PUSH1 0x0 PUSH1 0x80 DUP7 DUP9 SUB SLT ISZERO PUSH2 0x19D0 JUMPI PUSH1 0x0 DUP1 REVERT JUMPDEST PUSH2 0x19D9 DUP7 PUSH2 0x18F1 JUMP JUMPDEST SWAP5 POP PUSH2 0x19E7 PUSH1 0x20 DUP8 ADD PUSH2 0x18F1 JUMP JUMPDEST SWAP4 POP PUSH1 0x40 DUP7 ADD CALLDATALOAD SWAP3 POP PUSH1 0x60 DUP7 ADD CALLDATALOAD PUSH8 0xFFFFFFFFFFFFFFFF DUP1 DUP3 GT ISZERO PUSH2 0x1A0B JUMPI PUSH1 0x0 DUP1 REVERT JUMPDEST DUP2 DUP9 ADD SWAP2 POP DUP9 PUSH1 0x1F DUP4 ADD SLT PUSH2 0x1A1F JUMPI PUSH1 0x0 DUP1 REVERT JUMPDEST DUP2 CALLDATALOAD DUP2 DUP2 GT ISZERO PUSH2 0x1A2E JUMPI PUSH1 0x0 DUP1 REVERT JUMPDEST DUP10 PUSH1 0x20 DUP3 DUP6 ADD ADD GT ISZERO PUSH2 0x1A40 JUMPI PUSH1 0x0 DUP1 REVERT JUMPDEST SWAP7 SWAP10 SWAP6 SWAP9 POP SWAP4 SWAP7 POP PUSH1 0x20 ADD SWAP5 SWAP4 SWAP3 POP POP POP JUMP JUMPDEST PUSH1 0x20 DUP1 DUP3 MSTORE DUP3 MLOAD DUP3 DUP3 ADD DUP2 SWAP1 MSTORE PUSH1 0x0 SWAP2 SWAP1 DUP5 DUP3 ADD SWAP1 PUSH1 0x40 DUP6 ADD SWAP1 DUP5 JUMPDEST DUP2 DUP2 LT ISZERO PUSH2 0x1A94 JUMPI DUP4 MLOAD PUSH1 0x1 PUSH1 0x1 PUSH1 0xA0 SHL SUB AND DUP4 MSTORE SWAP3 DUP5 ADD SWAP3 SWAP2 DUP5 ADD SWAP2 PUSH1 0x1 ADD PUSH2 0x1A6F JUMP JUMPDEST POP SWAP1 SWAP7 SWAP6 POP POP POP POP POP POP JUMP JUMPDEST PUSH1 0x0 DUP1 DUP4 PUSH1 0x1F DUP5 ADD SLT PUSH2 0x1AB2 JUMPI PUSH1 0x0 DUP1 REVERT JUMPDEST POP DUP2 CALLDATALOAD PUSH8 0xFFFFFFFFFFFFFFFF DUP2 GT ISZERO PUSH2 0x1ACA JUMPI PUSH1 0x0 DUP1 REVERT JUMPDEST PUSH1 0x20 DUP4 ADD SWAP2 POP DUP4 PUSH1 0x20 DUP3 PUSH1 0x5 SHL DUP6 ADD ADD GT ISZERO PUSH2 0x1AE5 JUMPI PUSH1 0x0 DUP1 REVERT JUMPDEST SWAP3 POP SWAP3 SWAP1 POP JUMP JUMPDEST PUSH1 0x0 DUP1 PUSH1 0x0 DUP1 PUSH1 0x40 DUP6 DUP8 SUB SLT ISZERO PUSH2 0x1B02 JUMPI PUSH1 0x0 DUP1 REVERT JUMPDEST DUP5 CALLDATALOAD PUSH8 0xFFFFFFFFFFFFFFFF DUP1 DUP3 GT ISZERO PUSH2 0x1B1A JUMPI PUSH1 0x0 DUP1 REVERT JUMPDEST PUSH2 0x1B26 DUP9 DUP4 DUP10 ADD PUSH2 0x1AA0 JUMP JUMPDEST SWAP1 SWAP7 POP SWAP5 POP PUSH1 0x20 DUP8 ADD CALLDATALOAD SWAP2 POP DUP1 DUP3 GT ISZERO PUSH2 0x1B3F JUMPI PUSH1 0x0 DUP1 REVERT JUMPDEST POP PUSH2 0x1B4C DUP8 DUP3 DUP9 ADD PUSH2 0x1AA0 JUMP JUMPDEST SWAP6 SWAP9 SWAP5 SWAP8 POP SWAP6 POP POP POP POP JUMP JUMPDEST PUSH1 0x0 PUSH1 0x20 DUP3 DUP5 SUB SLT ISZERO PUSH2 0x1B6A JUMPI PUSH1 0x0 DUP1 REVERT JUMPDEST PUSH2 0xFE4 DUP3 PUSH2 0x18F1 JUMP JUMPDEST DUP1 CALLDATALOAD DUP1 ISZERO ISZERO DUP2 EQ PUSH2 0x1908 JUMPI PUSH1 0x0 DUP1 REVERT JUMPDEST PUSH1 0x0 DUP1 PUSH1 0x40 DUP4 DUP6 SUB SLT ISZERO PUSH2 0x1B96 JUMPI PUSH1 0x0 DUP1 REVERT JUMPDEST PUSH2 0x1B9F DUP4 PUSH2 0x18F1 JUMP JUMPDEST SWAP2 POP PUSH2 0x19AF PUSH1 0x20 DUP5 ADD PUSH2 0x1B73 JUMP JUMPDEST PUSH1 0x0 DUP1 PUSH1 0x0 PUSH1 0x40 DUP5 DUP7 SUB SLT ISZERO PUSH2 0x1BC2 JUMPI PUSH1 0x0 DUP1 REVERT JUMPDEST DUP4 CALLDATALOAD PUSH8 0xFFFFFFFFFFFFFFFF DUP2 GT ISZERO PUSH2 0x1BD9 JUMPI PUSH1 0x0 DUP1 REVERT JUMPDEST PUSH2 0x1BE5 DUP7 DUP3 DUP8 ADD PUSH2 0x1AA0 JUMP JUMPDEST SWAP1 SWAP5 POP SWAP3 POP PUSH2 0x1BF8 SWAP1 POP PUSH1 0x20 DUP6 ADD PUSH2 0x1B73 JUMP JUMPDEST SWAP1 POP SWAP3 POP SWAP3 POP SWAP3 JUMP JUMPDEST PUSH1 0x0 DUP1 PUSH1 0x40 DUP4 DUP6 SUB SLT ISZERO PUSH2 0x1C14 JUMPI PUSH1 0x0 DUP1 REVERT JUMPDEST PUSH2 0x1C1D DUP4 PUSH2 0x18F1 JUMP JUMPDEST SWAP2 POP PUSH2 0x19AF PUSH1 0x20 DUP5 ADD PUSH2 0x18F1 JUMP JUMPDEST PUSH1 0x1 DUP2 DUP2 SHR SWAP1 DUP3 AND DUP1 PUSH2 0x1C3F JUMPI PUSH1 0x7F DUP3 AND SWAP2 POP JUMPDEST PUSH1 0x20 DUP3 LT DUP2 SUB PUSH2 0x1C5F JUMPI PUSH4 0x4E487B71 PUSH1 0xE0 SHL PUSH1 0x0 MSTORE PUSH1 0x22 PUSH1 0x4 MSTORE PUSH1 0x24 PUSH1 0x0 REVERT JUMPDEST POP SWAP2 SWAP1 POP JUMP JUMPDEST DUP4 DUP2 MSTORE PUSH1 0x40 PUSH1 0x20 DUP3 ADD MSTORE DUP2 PUSH1 0x40 DUP3 ADD MSTORE DUP2 DUP4 PUSH1 0x60 DUP4 ADD CALLDATACOPY PUSH1 0x0 DUP2 DUP4 ADD PUSH1 0x60 SWAP1 DUP2 ADD SWAP2 SWAP1 SWAP2 MSTORE PUSH1 0x1F SWAP1 SWAP3 ADD PUSH1 0x1F NOT AND ADD ADD SWAP3 SWAP2 POP POP JUMP JUMPDEST PUSH1 0x20 DUP1 DUP3 MSTORE PUSH1 0x1E SWAP1 DUP3 ADD MSTORE PUSH32 0x4E58543A20726563697069656E74206E6F742077686974656C69737465640000 PUSH1 0x40 DUP3 ADD MSTORE PUSH1 0x60 ADD SWAP1 JUMP JUMPDEST DUP1 DUP3 ADD DUP1 DUP3 GT ISZERO PUSH2 0x5C2 JUMPI PUSH4 0x4E487B71 PUSH1 0xE0 SHL PUSH1 0x0 MSTORE PUSH1 0x11 PUSH1 0x4 MSTORE PUSH1 0x24 PUSH1 0x0 REVERT JUMPDEST PUSH4 0x4E487B71 PUSH1 0xE0 SHL PUSH1 0x0 MSTORE PUSH1 0x32 PUSH1 0x4 MSTORE PUSH1 0x24 PUSH1 0x0 REVERT INVALID PREVRANDAO 0x2A SWAP5 CALL LOG1 STATICCALL 0xC7 SWAP11 RETURN 0x28 JUMP 0xAF 0x2A PUSH5 0xF63648CFA2 0xEF EXTCODESIZE SWAP9 PUSH2 0xA5B 0xB7 0xCB 0xEC 0x4C 0xEE PUSH10 0x85A49807205CE4D35509 0x2E CREATE2 0xA8 LOG1 DUP16 JUMP 0xE8 SWAP2 EXTCODECOPY DELEGATECALL LOG2 ADD 0xFB 0xE2 DUP8 DUP3 JUMPDEST MULMOD JUMP SWAP4 0xC2 OR PUSH22 0xA264697066735822122015E991BC6471FFF04FF8F134 0xD2 CALLER 0xEB CHAINID SWAP15 GAS PUSH27 0x87F5A941D4BE4FBF62F8D5A23B64736F6C63430008180033000000 "},"methodIdentifiers":{"ADMIN_ROLE()":"75b238fc","COMPLIANCE_ROLE()":"062d3bd7","DEFAULT_ADMIN_ROLE()":"a217fddf","MINTER_ROLE()":"d5391393","allowance(address,address)":"dd62ed3e","approve(address,uint256)":"095ea7b3","assetId()":"44de240a","assetType()":"3fe3347a","balanceOf(address)":"70a08231","batchMint(address[],uint256[])":"68573107","batchWhitelist(address[],bool)":"b5adce3f","burn(uint256)":"42966c68","burnFrom(address,uint256)":"79cc6790","decimals()":"313ce567","forcedTransfer(address,address,uint256,string)":"3ad8b2d7","frozen(address)":"d0516650","getHolderCount()":"7136982b","getHolders()":"5fe8e7cc","getRoleAdmin(bytes32)":"248a9ca3","grantRole(bytes32,address)":"2f2ff15d","hasRole(bytes32,address)":"91d14854","holders(uint256)":"2a11ced0","isCompliant(address,address)":"dd4fcc3f","jurisdiction()":"826a5d56","maxSupply()":"d5abeb01","mint(address,uint256)":"40c10f19","name()":"06fdde03","pause()":"8456cb59","paused()":"5c975abb","renounceRole(bytes32,address)":"36568abe","revokeRole(bytes32,address)":"d547741f","setFrozen(address,bool)":"ac869cd8","setWhitelisted(address,bool)":"9281aa0b","supportsInterface(bytes4)":"01ffc9a7","symbol()":"95d89b41","totalSupply()":"18160ddd","transfer(address,uint256)":"a9059cbb","transferFrom(address,address,uint256)":"23b872dd","unpause()":"3f4ba83a","whitelisted(address)":"d936547e"}}}}}