{
  "_format": "hh-sol-artifact-1",
  "contractName": "NXTTokenFactory",
  "sourceName": "contracts/NXTTokenFactory.sol",
  "abi": [
    {
      "inputs": [],
      "stateMutability": "nonpayable",
      "type": "constructor"
    },
    {
      "anonymous": false,
      "inputs": [
        {
          "indexed": true,
          "internalType": "address",
          "name": "tokenAddress",
          "type": "address"
        },
        {
          "indexed": false,
          "internalType": "string",
          "name": "name",
          "type": "string"
        },
        {
          "indexed": false,
          "internalType": "string",
          "name": "symbol",
          "type": "string"
        },
        {
          "indexed": false,
          "internalType": "string",
          "name": "assetId",
          "type": "string"
        },
        {
          "indexed": false,
          "internalType": "uint256",
          "name": "maxSupply",
          "type": "uint256"
        },
        {
          "indexed": false,
          "internalType": "address",
          "name": "admin",
          "type": "address"
        }
      ],
      "name": "TokenDeployed",
      "type": "event"
    },
    {
      "inputs": [
        {
          "internalType": "string",
          "name": "",
          "type": "string"
        }
      ],
      "name": "assetIdToToken",
      "outputs": [
        {
          "internalType": "address",
          "name": "",
          "type": "address"
        }
      ],
      "stateMutability": "view",
      "type": "function"
    },
    {
      "inputs": [
        {
          "internalType": "string",
          "name": "_name",
          "type": "string"
        },
        {
          "internalType": "string",
          "name": "_symbol",
          "type": "string"
        },
        {
          "internalType": "uint256",
          "name": "_maxSupply",
          "type": "uint256"
        },
        {
          "internalType": "string",
          "name": "_assetId",
          "type": "string"
        },
        {
          "internalType": "string",
          "name": "_assetType",
          "type": "string"
        },
        {
          "internalType": "string",
          "name": "_jurisdiction",
          "type": "string"
        },
        {
          "internalType": "address",
          "name": "_admin",
          "type": "address"
        }
      ],
      "name": "deployToken",
      "outputs": [
        {
          "internalType": "address",
          "name": "",
          "type": "address"
        }
      ],
      "stateMutability": "nonpayable",
      "type": "function"
    },
    {
      "inputs": [
        {
          "internalType": "uint256",
          "name": "",
          "type": "uint256"
        }
      ],
      "name": "deployedTokens",
      "outputs": [
        {
          "internalType": "address",
          "name": "",
          "type": "address"
        }
      ],
      "stateMutability": "view",
      "type": "function"
    },
    {
      "inputs": [],
      "name": "getDeployedTokens",
      "outputs": [
        {
          "internalType": "address[]",
          "name": "",
          "type": "address[]"
        }
      ],
      "stateMutability": "view",
      "type": "function"
    },
    {
      "inputs": [],
      "name": "getTokenCount",
      "outputs": [
        {
          "internalType": "uint256",
          "name": "",
          "type": "uint256"
        }
      ],
      "stateMutability": "view",
      "type": "function"
    },
    {
      "inputs": [],
      "name": "owner",
      "outputs": [
        {
          "internalType": "address",
          "name": "",
          "type": "address"
        }
      ],
      "stateMutability": "view",
      "type": "function"
    },
    {
      "inputs": [
        {
          "internalType": "address",
          "name": "",
          "type": "address"
        }
      ],
      "name": "tokenInfo",
      "outputs": [
        {
          "internalType": "address",
          "name": "tokenAddress",
          "type": "address"
        },
        {
          "internalType": "string",
          "name": "name",
          "type": "string"
        },
        {
          "internalType": "string",
          "name": "symbol",
          "type": "string"
        },
        {
          "internalType": "string",
          "name": "assetId",
          "type": "string"
        },
        {
          "internalType": "string",
          "name": "assetType",
          "type": "string"
        },
        {
          "internalType": "uint256",
          "name": "maxSupply",
          "type": "uint256"
        },
        {
          "internalType": "uint256",
          "name": "deployedAt",
          "type": "uint256"
        }
      ],
      "stateMutability": "view",
      "type": "function"
    },
    {
      "inputs": [
        {
          "internalType": "address",
          "name": "newOwner",
          "type": "address"
        }
      ],
      "name": "transferOwnership",
      "outputs": [],
      "stateMutability": "nonpayable",
      "type": "function"
    }
  ],
  "bytecode": "0x608060405234801561001057600080fd5b50600080546001600160a01b03191633179055613121806100326000396000f3fe60806040523480156200001157600080fd5b5060043610620000935760003560e01c8063b0096b491162000062578063b0096b491462000130578063ec81aadb1462000147578063f2fde38b146200015e578063f5dab711146200017757600080fd5b8063622ae7aa146200009857806378a8956714620000ba5780638c1210f114620000cc5780638da5cb5b146200011c575b600080fd5b620000a2620001a3565b604051620000b191906200084c565b60405180910390f35b600154604051908152602001620000b1565b62000103620000dd36600462000946565b80516020818301810180516003825292820191909301209152546001600160a01b031681565b6040516001600160a01b039091168152602001620000b1565b60005462000103906001600160a01b031681565b6200010362000141366004620009a4565b62000207565b620001036200015836600462000aa2565b62000518565b620001756200016f36600462000abc565b62000543565b005b6200018e6200018836600462000abc565b620005b9565b604051620000b1979695949392919062000b35565b60606001805480602002602001604051908101604052809291908181526020018280548015620001fd57602002820191906000526020600020905b81546001600160a01b03168152600190910190602001808311620001de575b5050505050905090565b600080546001600160a01b03163314620002605760405162461bcd60e51b8152602060048201526015602482015274272c2a2330b1ba37b93c9d103737ba1037bbb732b960591b60448201526064015b60405180910390fd5b60006001600160a01b03166003866040516200027d919062000bb2565b908152604051908190036020019020546001600160a01b031614620002f15760405162461bcd60e51b815260206004820152602360248201527f4e5854466163746f72793a20617373657420616c726561647920746f6b656e696044820152621e995960ea1b606482015260840162000257565b60008888888888888860405162000308906200083e565b6200031a979695949392919062000bd0565b604051809103906000f08015801562000337573d6000803e3d6000fd5b50905060008190506001819080600181540180825580915050600190039060005260206000200160009091909190916101000a8154816001600160a01b0302191690836001600160a01b031602179055506040518060e00160405280826001600160a01b031681526020018b81526020018a81526020018881526020018781526020018981526020014281525060026000836001600160a01b03166001600160a01b0316815260200190815260200160002060008201518160000160006101000a8154816001600160a01b0302191690836001600160a01b0316021790555060208201518160010190816200042d919062000cef565b506040820151600282019062000444908262000cef565b50606082015160038201906200045b908262000cef565b506080820151600482019062000472908262000cef565b5060a0820151816005015560c08201518160060155905050806003886040516200049d919062000bb2565b90815260405190819003602001812080546001600160a01b039384166001600160a01b0319909116179055908216907f1e378a116aede193d2448ba6642270b973f8095e608fe914046e8845f32c743e9062000503908d908d908c908e908b9062000dbc565b60405180910390a29998505050505050505050565b600181815481106200052957600080fd5b6000918252602090912001546001600160a01b0316905081565b6000546001600160a01b03163314620005975760405162461bcd60e51b8152602060048201526015602482015274272c2a2330b1ba37b93c9d103737ba1037bbb732b960591b604482015260640162000257565b600080546001600160a01b0319166001600160a01b0392909216919091179055565b600260205260009081526040902080546001820180546001600160a01b039092169291620005e79062000c5e565b80601f0160208091040260200160405190810160405280929190818152602001828054620006159062000c5e565b8015620006665780601f106200063a5761010080835404028352916020019162000666565b820191906000526020600020905b8154815290600101906020018083116200064857829003601f168201915b5050505050908060020180546200067d9062000c5e565b80601f0160208091040260200160405190810160405280929190818152602001828054620006ab9062000c5e565b8015620006fc5780601f10620006d057610100808354040283529160200191620006fc565b820191906000526020600020905b815481529060010190602001808311620006de57829003601f168201915b505050505090806003018054620007139062000c5e565b80601f0160208091040260200160405190810160405280929190818152602001828054620007419062000c5e565b8015620007925780601f10620007665761010080835404028352916020019162000792565b820191906000526020600020905b8154815290600101906020018083116200077457829003601f168201915b505050505090806004018054620007a99062000c5e565b80601f0160208091040260200160405190810160405280929190818152602001828054620007d79062000c5e565b8015620008285780601f10620007fc5761010080835404028352916020019162000828565b820191906000526020600020905b8154815290600101906020018083116200080a57829003601f168201915b5050505050908060050154908060060154905087565b6122cd8062000e1f83390190565b6020808252825182820181905260009190848201906040850190845b818110156200088f5783516001600160a01b03168352928401929184019160010162000868565b50909695505050505050565b634e487b7160e01b600052604160045260246000fd5b600082601f830112620008c357600080fd5b813567ffffffffffffffff80821115620008e157620008e16200089b565b604051601f8301601f19908116603f011681019082821181831017156200090c576200090c6200089b565b816040528381528660208588010111156200092657600080fd5b836020870160208301376000602085830101528094505050505092915050565b6000602082840312156200095957600080fd5b813567ffffffffffffffff8111156200097157600080fd5b6200097f84828501620008b1565b949350505050565b80356001600160a01b03811681146200099f57600080fd5b919050565b600080600080600080600060e0888a031215620009c057600080fd5b873567ffffffffffffffff80821115620009d957600080fd5b620009e78b838c01620008b1565b985060208a0135915080821115620009fe57600080fd5b62000a0c8b838c01620008b1565b975060408a0135965060608a013591508082111562000a2a57600080fd5b62000a388b838c01620008b1565b955060808a013591508082111562000a4f57600080fd5b62000a5d8b838c01620008b1565b945060a08a013591508082111562000a7457600080fd5b5062000a838a828b01620008b1565b92505062000a9460c0890162000987565b905092959891949750929550565b60006020828403121562000ab557600080fd5b5035919050565b60006020828403121562000acf57600080fd5b62000ada8262000987565b9392505050565b60005b8381101562000afe57818101518382015260200162000ae4565b50506000910152565b6000815180845262000b2181602086016020860162000ae1565b601f01601f19169290920160200192915050565b6001600160a01b038816815260e06020820181905260009062000b5b9083018962000b07565b828103604084015262000b6f818962000b07565b9050828103606084015262000b85818862000b07565b9050828103608084015262000b9b818762000b07565b60a0840195909552505060c0015295945050505050565b6000825162000bc681846020870162000ae1565b9190910192915050565b60e08152600062000be560e083018a62000b07565b828103602084015262000bf9818a62000b07565b9050876040840152828103606084015262000c15818862000b07565b9050828103608084015262000c2b818762000b07565b905082810360a084015262000c41818662000b07565b91505060018060a01b03831660c083015298975050505050505050565b600181811c9082168062000c7357607f821691505b60208210810362000c9457634e487b7160e01b600052602260045260246000fd5b50919050565b601f82111562000cea576000816000526020600020601f850160051c8101602086101562000cc55750805b601f850160051c820191505b8181101562000ce65782815560010162000cd1565b5050505b505050565b815167ffffffffffffffff81111562000d0c5762000d0c6200089b565b62000d248162000d1d845462000c5e565b8462000c9a565b602080601f83116001811462000d5c576000841562000d435750858301515b600019600386901b1c1916600185901b17855562000ce6565b600085815260208120601f198616915b8281101562000d8d5788860151825594840194600190910190840162000d6c565b508582101562000dac5787850151600019600388901b60f8161c191681555b5050505050600190811b01905550565b60a08152600062000dd160a083018862000b07565b828103602084015262000de5818862000b07565b9050828103604084015262000dfb818762000b07565b606084019590955250506001600160a01b0391909116608090910152939250505056fe60806040523480156200001157600080fd5b50604051620022cd380380620022cd8339810160408190526200003491620002e4565b8686600362000044838262000472565b50600462000053828262000472565b505050600c859055600962000069858262000472565b50600a62000078848262000472565b50600b62000087838262000472565b50620000956000826200014c565b50620000c27fa49807205ce4d355092ef5a8a18f56e8913cf4a201fbe287825b095693c21775826200014c565b50620000ef7f9f2df0fed2c77648de5860a4cc508cd0818c85b8b8a1ab4ceeef8d981c8956a6826200014c565b506200011c7f442a94f1a1fac79af32856af2a64f63648cfa2ef3b98610a5bb7cbec4cee6985826200014c565b506001600160a01b03166000908152600760205260409020805460ff19166001179055506200053e945050505050565b60008281526005602090815260408083206001600160a01b038516845290915281205460ff16620001f55760008381526005602090815260408083206001600160a01b03861684529091529020805460ff19166001179055620001ac3390565b6001600160a01b0316826001600160a01b0316847f2f8788117e7eff1d82e926ec794901d17c78024a50270940304540a733656f0d60405160405180910390a4506001620001f9565b5060005b92915050565b634e487b7160e01b600052604160045260246000fd5b600082601f8301126200022757600080fd5b81516001600160401b0380821115620002445762000244620001ff565b604051601f8301601f19908116603f011681019082821181831017156200026f576200026f620001ff565b81604052838152602092508660208588010111156200028d57600080fd5b600091505b83821015620002b1578582018301518183018401529082019062000292565b6000602085830101528094505050505092915050565b80516001600160a01b0381168114620002df57600080fd5b919050565b600080600080600080600060e0888a0312156200030057600080fd5b87516001600160401b03808211156200031857600080fd5b620003268b838c0162000215565b985060208a01519150808211156200033d57600080fd5b6200034b8b838c0162000215565b975060408a0151965060608a01519150808211156200036957600080fd5b620003778b838c0162000215565b955060808a01519150808211156200038e57600080fd5b6200039c8b838c0162000215565b945060a08a0151915080821115620003b357600080fd5b50620003c28a828b0162000215565b925050620003d360c08901620002c7565b905092959891949750929550565b600181811c90821680620003f657607f821691505b6020821081036200041757634e487b7160e01b600052602260045260246000fd5b50919050565b601f8211156200046d576000816000526020600020601f850160051c81016020861015620004485750805b601f850160051c820191505b81811015620004695782815560010162000454565b5050505b505050565b81516001600160401b038111156200048e576200048e620001ff565b620004a6816200049f8454620003e1565b846200041d565b602080601f831160018114620004de5760008415620004c55750858301515b600019600386901b1c1916600185901b17855562000469565b600085815260208120601f198616915b828110156200050f57888601518255948401946001909101908401620004ee565b50858210156200052e5787850151600019600388901b60f8161c191681555b5050505050600190811b01905550565b611d7f806200054e6000396000f3fe608060405234801561001057600080fd5b50600436106102485760003560e01c806370a082311161013b578063a9059cbb116100b8578063d547741f1161007c578063d547741f14610506578063d5abeb0114610519578063d936547e14610522578063dd4fcc3f14610545578063dd62ed3e1461055857600080fd5b8063a9059cbb14610483578063ac869cd814610496578063b5adce3f146104a9578063d0516650146104bc578063d5391393146104df57600080fd5b80638456cb59116100ff5780638456cb591461044557806391d148541461044d5780639281aa0b1461046057806395d89b4114610473578063a217fddf1461047b57600080fd5b806370a08231146103e45780637136982b1461040d57806375b238fc1461041557806379cc67901461042a578063826a5d561461043d57600080fd5b806336568abe116101c957806342966c681161018d57806342966c681461039657806344de240a146103a95780635c975abb146103b15780635fe8e7cc146103bc57806368573107146103d157600080fd5b806336568abe1461034d5780633ad8b2d7146103605780633f4ba83a146103735780633fe3347a1461037b57806340c10f191461038357600080fd5b806323b872dd1161021057806323b872dd146102c8578063248a9ca3146102db5780632a11ced0146102fe5780632f2ff15d14610329578063313ce5671461033e57600080fd5b806301ffc9a71461024d578063062d3bd71461027557806306fdde0314610298578063095ea7b3146102ad57806318160ddd146102c0575b600080fd5b61026061025b366004611878565b610591565b60405190151581526020015b60405180910390f35b61028a600080516020611d0a83398151915281565b60405190815260200161026c565b6102a06105c8565b60405161026c91906118a2565b6102606102bb36600461190d565b61065a565b60025461028a565b6102606102d6366004611937565b610672565b61028a6102e9366004611973565b60009081526005602052604090206001015490565b61031161030c366004611973565b610696565b6040516001600160a01b03909116815260200161026c565b61033c61033736600461198c565b6106c0565b005b6040516012815260200161026c565b61033c61035b36600461198c565b6106eb565b61033c61036e3660046119b8565b610723565b61033c61080a565b6102a061082d565b61033c61039136600461190d565b6108bb565b61033c6103a4366004611973565b6109fb565b6102a0610a05565b60065460ff16610260565b6103c4610a12565b60405161026c9190611a53565b61033c6103df366004611aec565b610a73565b61028a6103f2366004611b58565b6001600160a01b031660009081526020819052604090205490565b600d5461028a565b61028a600080516020611d2a83398151915281565b61033c61043836600461190d565b610cbc565b6102a0610cde565b61033c610ceb565b61026061045b36600461198c565b610d0b565b61033c61046e366004611b83565b610d36565b6102a0610daf565b61028a600081565b61026061049136600461190d565b610dbe565b61033c6104a4366004611b83565b610dcc565b61033c6104b7366004611bad565b610e3c565b6102606104ca366004611b58565b60086020526000908152604090205460ff1681565b61028a7f9f2df0fed2c77648de5860a4cc508cd0818c85b8b8a1ab4ceeef8d981c8956a681565b61033c61051436600461198c565b610f26565b61028a600c5481565b610260610530366004611b58565b60076020526000908152604090205460ff1681565b610260610553366004611c01565b610f4b565b61028a610566366004611c01565b6001600160a01b03918216600090815260016020908152604080832093909416825291909152205490565b60006001600160e01b03198216637965db0b60e01b14806105c257506301ffc9a760e01b6001600160e01b03198316145b92915050565b6060600380546105d790611c2b565b80601f016020809104026020016040519081016040528092919081815260200182805461060390611c2b565b80156106505780601f1061062557610100808354040283529160200191610650565b820191906000526020600020905b81548152906001019060200180831161063357829003601f168201915b5050505050905090565b600033610668818585610feb565b5060019392505050565b600033610680858285610ff8565b61068b858585611071565b506001949350505050565b600d81815481106106a657600080fd5b6000918252602090912001546001600160a01b0316905081565b6000828152600560205260409020600101546106db816110d0565b6106e583836110da565b50505050565b6001600160a01b03811633146107145760405163334bd91960e11b815260040160405180910390fd5b61071e828261116e565b505050565b600080516020611d0a83398151915261073b816110d0565b6001600160a01b03851660009081526007602052604090205460ff166107a85760405162461bcd60e51b815260206004820152601b60248201527f4e58543a20746172676574206e6f742077686974656c6973746564000000000060448201526064015b60405180910390fd5b6107b3868686611071565b846001600160a01b0316866001600160a01b03167fbb53097141337c38a36fed7fae913304cd0c540e1200dbb4c8c1cee707f9f2c28686866040516107fa93929190611c65565b60405180910390a3505050505050565b600080516020611d2a833981519152610822816110d0565b61082a6111db565b50565b600a805461083a90611c2b565b80601f016020809104026020016040519081016040528092919081815260200182805461086690611c2b565b80156108b35780601f10610888576101008083540402835291602001916108b3565b820191906000526020600020905b81548152906001019060200180831161089657829003601f168201915b505050505081565b7f9f2df0fed2c77648de5860a4cc508cd0818c85b8b8a1ab4ceeef8d981c8956a66108e5816110d0565b6108ed61122d565b6001600160a01b03831660009081526007602052604090205460ff166109255760405162461bcd60e51b815260040161079f90611c9b565b6001600160a01b03831660009081526008602052604090205460ff16156109895760405162461bcd60e51b8152602060048201526018602482015277272c2a1d103932b1b4b834b2b73a1034b990333937bd32b760411b604482015260640161079f565b600c548261099660025490565b6109a09190611cd2565b11156109e85760405162461bcd60e51b81526020600482015260176024820152764e58543a2065786365656473206d617820737570706c7960481b604482015260640161079f565b6109f28383611253565b61071e8361128d565b61082a3382611338565b6009805461083a90611c2b565b6060600d80548060200260200160405190810160405280929190818152602001828054801561065057602002820191906000526020600020905b81546001600160a01b03168152600190910190602001808311610a4c575050505050905090565b7f9f2df0fed2c77648de5860a4cc508cd0818c85b8b8a1ab4ceeef8d981c8956a6610a9d816110d0565b610aa561122d565b838214610aeb5760405162461bcd60e51b815260206004820152601460248201527309cb0a87440d8cadccee8d040dad2e6dac2e8c6d60631b604482015260640161079f565b60005b84811015610c665760076000878784818110610b0c57610b0c611cf3565b9050602002016020810190610b219190611b58565b6001600160a01b0316815260208101919091526040016000205460ff16610b5a5760405162461bcd60e51b815260040161079f90611c9b565b60086000878784818110610b7057610b70611cf3565b9050602002016020810190610b859190611b58565b6001600160a01b0316815260208101919091526040016000205460ff1615610be75760405162461bcd60e51b8152602060048201526015602482015274272c2a1d103932b1b4b834b2b73a10333937bd32b760591b604482015260640161079f565b610c2f868683818110610bfc57610bfc611cf3565b9050602002016020810190610c119190611b58565b858584818110610c2357610c23611cf3565b90506020020135611253565b610c5e868683818110610c4457610c44611cf3565b9050602002016020810190610c599190611b58565b61128d565b600101610aee565b50600c546002541115610cb55760405162461bcd60e51b81526020600482015260176024820152764e58543a2065786365656473206d617820737570706c7960481b604482015260640161079f565b5050505050565b600080516020611d2a833981519152610cd4816110d0565b61071e8383611338565b600b805461083a90611c2b565b600080516020611d2a833981519152610d03816110d0565b61082a61136e565b60009182526005602090815260408084206001600160a01b0393909316845291905290205460ff1690565b600080516020611d0a833981519152610d4e816110d0565b6001600160a01b038316600081815260076020908152604091829020805460ff191686151590811790915591519182527fa54714518c5d275fdcd3d2a461e4858e4e8cb04fb93cd0bca9d6d34115f2644091015b60405180910390a2505050565b6060600480546105d790611c2b565b600033610668818585611071565b600080516020611d0a833981519152610de4816110d0565b6001600160a01b038316600081815260086020908152604091829020805460ff191686151590811790915591519182527f713eb400302cebac61f82eb8de5051d38458517ffac43ae45f4a9fd5d09ee6989101610da2565b600080516020611d0a833981519152610e54816110d0565b60005b83811015610cb5578260076000878785818110610e7657610e76611cf3565b9050602002016020810190610e8b9190611b58565b6001600160a01b031681526020810191909152604001600020805460ff1916911515919091179055848482818110610ec557610ec5611cf3565b9050602002016020810190610eda9190611b58565b6001600160a01b03167fa54714518c5d275fdcd3d2a461e4858e4e8cb04fb93cd0bca9d6d34115f2644084604051610f16911515815260200190565b60405180910390a2600101610e57565b600082815260056020526040902060010154610f41816110d0565b6106e5838361116e565b6001600160a01b03821660009081526007602052604081205460ff168015610f8b57506001600160a01b03821660009081526007602052604090205460ff165b8015610fb057506001600160a01b03831660009081526008602052604090205460ff16155b8015610fd557506001600160a01b03821660009081526008602052604090205460ff16155b8015610fe4575060065460ff16155b9392505050565b61071e83838360016113ab565b6001600160a01b038381166000908152600160209081526040808320938616835292905220546000198110156106e5578181101561106257604051637dc7a0d960e11b81526001600160a01b0384166004820152602481018290526044810183905260640161079f565b6106e5848484840360006113ab565b6001600160a01b03831661109b57604051634b637e8f60e11b81526000600482015260240161079f565b6001600160a01b0382166110c55760405163ec442f0560e01b81526000600482015260240161079f565b61071e838383611480565b61082a81336116f2565b60006110e68383610d0b565b6111665760008381526005602090815260408083206001600160a01b03861684529091529020805460ff1916600117905561111e3390565b6001600160a01b0316826001600160a01b0316847f2f8788117e7eff1d82e926ec794901d17c78024a50270940304540a733656f0d60405160405180910390a45060016105c2565b5060006105c2565b600061117a8383610d0b565b156111665760008381526005602090815260408083206001600160a01b0386168085529252808320805460ff1916905551339286917ff6391f5c32d9c69d2a47ea670b442974b53935d1edc7fd64eb21e047a839171b9190a45060016105c2565b6111e361172b565b6006805460ff191690557f5db9ee0a495bf2e6ff9c91a7834c1ba4fdd244a5e8aa4e537bd38aeae4b073aa335b6040516001600160a01b03909116815260200160405180910390a1565b60065460ff16156112515760405163d93c066560e01b815260040160405180910390fd5b565b6001600160a01b03821661127d5760405163ec442f0560e01b81526000600482015260240161079f565b61128960008383611480565b5050565b6001600160a01b0381166000908152600e602052604090205460ff161580156112cc57506001600160a01b038116600090815260208190526040812054115b1561082a57600d805460018181019092557fd7b6990105719101dabeb77144f2a3385c8033acd3af97e9423a695e81ad1eb50180546001600160a01b0384166001600160a01b031990911681179091556000908152600e60205260409020805460ff1916909117905550565b6001600160a01b03821661136257604051634b637e8f60e11b81526000600482015260240161079f565b61128982600083611480565b61137661122d565b6006805460ff191660011790557f62e78cea01bee320cd4e420270b5ea74000d11b0c9f74754ebdbfc544b05a2586112103390565b6001600160a01b0384166113d55760405163e602df0560e01b81526000600482015260240161079f565b6001600160a01b0383166113ff57604051634a1406b160e11b81526000600482015260240161079f565b6001600160a01b03808516600090815260016020908152604080832093871683529290522082905580156106e557826001600160a01b0316846001600160a01b03167f8c5be1e5ebec7d5bd14f71427d1e84f3dd0314c0f7b2291e5b200ac8c7c3b9258460405161147291815260200190565b60405180910390a350505050565b6001600160a01b038316158015906114a057506001600160a01b03821615155b156116cf5760065460ff16156114f05760405162461bcd60e51b81526020600482015260156024820152741396150e881d1c985b9cd9995c9cc81c185d5cd959605a1b604482015260640161079f565b6001600160a01b03831660009081526007602052604090205460ff166115585760405162461bcd60e51b815260206004820152601b60248201527f4e58543a2073656e646572206e6f742077686974656c69737465640000000000604482015260640161079f565b6001600160a01b03821660009081526007602052604090205460ff166115905760405162461bcd60e51b815260040161079f90611c9b565b6001600160a01b03831660009081526008602052604090205460ff16156115f15760405162461bcd60e51b8152602060048201526015602482015274272c2a1d1039b2b73232b91034b990333937bd32b760591b604482015260640161079f565b6001600160a01b03821660009081526008602052604090205460ff16156116555760405162461bcd60e51b8152602060048201526018602482015277272c2a1d103932b1b4b834b2b73a1034b990333937bd32b760411b604482015260640161079f565b816001600160a01b0316836001600160a01b03167feca16393bf801ab7a64235fed78748ac46cd7df230a0f8edb3222cd33bf7b63460016040516116c6911515815260406020820181905260119082015270151c985b9cd9995c88185c1c1c9bdd9959607a1b606082015260800190565b60405180910390a35b6116da83838361174e565b6001600160a01b0382161561071e5761071e8261128d565b6116fc8282610d0b565b6112895760405163e2517d3f60e01b81526001600160a01b03821660048201526024810183905260440161079f565b60065460ff1661125157604051638dfc202b60e01b815260040160405180910390fd5b6001600160a01b03831661177957806002600082825461176e9190611cd2565b909155506117eb9050565b6001600160a01b038316600090815260208190526040902054818110156117cc5760405163391434e360e21b81526001600160a01b0385166004820152602481018290526044810183905260640161079f565b6001600160a01b03841660009081526020819052604090209082900390555b6001600160a01b03821661180757600280548290039055611826565b6001600160a01b03821660009081526020819052604090208054820190555b816001600160a01b0316836001600160a01b03167fddf252ad1be2c89b69c2b068fc378daa952ba7f163c4a11628f55a4df523b3ef8360405161186b91815260200190565b60405180910390a3505050565b60006020828403121561188a57600080fd5b81356001600160e01b031981168114610fe457600080fd5b60006020808352835180602085015260005b818110156118d0578581018301518582016040015282016118b4565b506000604082860101526040601f19601f8301168501019250505092915050565b80356001600160a01b038116811461190857600080fd5b919050565b6000806040838503121561192057600080fd5b611929836118f1565b946020939093013593505050565b60008060006060848603121561194c57600080fd5b611955846118f1565b9250611963602085016118f1565b9150604084013590509250925092565b60006020828403121561198557600080fd5b5035919050565b6000806040838503121561199f57600080fd5b823591506119af602084016118f1565b90509250929050565b6000806000806000608086880312156119d057600080fd5b6119d9866118f1565b94506119e7602087016118f1565b935060408601359250606086013567ffffffffffffffff80821115611a0b57600080fd5b818801915088601f830112611a1f57600080fd5b813581811115611a2e57600080fd5b896020828501011115611a4057600080fd5b9699959850939650602001949392505050565b6020808252825182820181905260009190848201906040850190845b81811015611a945783516001600160a01b031683529284019291840191600101611a6f565b50909695505050505050565b60008083601f840112611ab257600080fd5b50813567ffffffffffffffff811115611aca57600080fd5b6020830191508360208260051b8501011115611ae557600080fd5b9250929050565b60008060008060408587031215611b0257600080fd5b843567ffffffffffffffff80821115611b1a57600080fd5b611b2688838901611aa0565b90965094506020870135915080821115611b3f57600080fd5b50611b4c87828801611aa0565b95989497509550505050565b600060208284031215611b6a57600080fd5b610fe4826118f1565b8035801515811461190857600080fd5b60008060408385031215611b9657600080fd5b611b9f836118f1565b91506119af60208401611b73565b600080600060408486031215611bc257600080fd5b833567ffffffffffffffff811115611bd957600080fd5b611be586828701611aa0565b9094509250611bf8905060208501611b73565b90509250925092565b60008060408385031215611c1457600080fd5b611c1d836118f1565b91506119af602084016118f1565b600181811c90821680611c3f57607f821691505b602082108103611c5f57634e487b7160e01b600052602260045260246000fd5b50919050565b83815260406020820152816040820152818360608301376000818301606090810191909152601f909201601f1916010192915050565b6020808252601e908201527f4e58543a20726563697069656e74206e6f742077686974656c69737465640000604082015260600190565b808201808211156105c257634e487b7160e01b600052601160045260246000fd5b634e487b7160e01b600052603260045260246000fdfe442a94f1a1fac79af32856af2a64f63648cfa2ef3b98610a5bb7cbec4cee6985a49807205ce4d355092ef5a8a18f56e8913cf4a201fbe287825b095693c21775a264697066735822122015e991bc6471fff04ff8f134d233eb469e5a7a87f5a941d4be4fbf62f8d5a23b64736f6c63430008180033a2646970667358221220bde3edb7c7dd1af527df84b052548ce6e1481523a9567f9948c1b09b4ee3c53b64736f6c63430008180033",
  "linkReferences": {},
  "deployedLinkReferences": {}
}