{
  "_format": "hh-sol-artifact-1",
  "contractName": "NXTYieldDistributor",
  "sourceName": "contracts/NXTYieldDistributor.sol",
  "abi": [
    {
      "inputs": [
        {
          "internalType": "address",
          "name": "_paymentToken",
          "type": "address"
        }
      ],
      "stateMutability": "nonpayable",
      "type": "constructor"
    },
    {
      "anonymous": false,
      "inputs": [
        {
          "indexed": true,
          "internalType": "address",
          "name": "tokenAddress",
          "type": "address"
        },
        {
          "indexed": false,
          "internalType": "uint256",
          "name": "totalAmount",
          "type": "uint256"
        },
        {
          "indexed": false,
          "internalType": "uint256",
          "name": "holdersCount",
          "type": "uint256"
        },
        {
          "indexed": false,
          "internalType": "uint256",
          "name": "distributionId",
          "type": "uint256"
        }
      ],
      "name": "YieldDistributed",
      "type": "event"
    },
    {
      "inputs": [
        {
          "internalType": "address",
          "name": "tokenAddress",
          "type": "address"
        },
        {
          "internalType": "uint256",
          "name": "totalAmount",
          "type": "uint256"
        },
        {
          "internalType": "address[]",
          "name": "holders",
          "type": "address[]"
        },
        {
          "internalType": "uint256[]",
          "name": "amounts",
          "type": "uint256[]"
        }
      ],
      "name": "distribute",
      "outputs": [],
      "stateMutability": "nonpayable",
      "type": "function"
    },
    {
      "inputs": [
        {
          "internalType": "uint256",
          "name": "",
          "type": "uint256"
        }
      ],
      "name": "distributions",
      "outputs": [
        {
          "internalType": "address",
          "name": "tokenAddress",
          "type": "address"
        },
        {
          "internalType": "uint256",
          "name": "totalAmount",
          "type": "uint256"
        },
        {
          "internalType": "uint256",
          "name": "distributedAt",
          "type": "uint256"
        },
        {
          "internalType": "uint256",
          "name": "holdersCount",
          "type": "uint256"
        },
        {
          "internalType": "bool",
          "name": "completed",
          "type": "bool"
        }
      ],
      "stateMutability": "view",
      "type": "function"
    },
    {
      "inputs": [],
      "name": "getDistributionCount",
      "outputs": [
        {
          "internalType": "uint256",
          "name": "",
          "type": "uint256"
        }
      ],
      "stateMutability": "view",
      "type": "function"
    },
    {
      "inputs": [],
      "name": "owner",
      "outputs": [
        {
          "internalType": "address",
          "name": "",
          "type": "address"
        }
      ],
      "stateMutability": "view",
      "type": "function"
    },
    {
      "inputs": [],
      "name": "paymentToken",
      "outputs": [
        {
          "internalType": "contract IERC20",
          "name": "",
          "type": "address"
        }
      ],
      "stateMutability": "view",
      "type": "function"
    },
    {
      "inputs": [
        {
          "internalType": "address",
          "name": "token",
          "type": "address"
        },
        {
          "internalType": "uint256",
          "name": "amount",
          "type": "uint256"
        }
      ],
      "name": "withdrawExcess",
      "outputs": [],
      "stateMutability": "nonpayable",
      "type": "function"
    }
  ],
  "bytecode": "0x608060405234801561001057600080fd5b5060405161089838038061089883398101604081905261002f91610062565b60008054336001600160a01b031991821617909155600180549091166001600160a01b0392909216919091179055610092565b60006020828403121561007457600080fd5b81516001600160a01b038116811461008b57600080fd5b9392505050565b6107f7806100a16000396000f3fe608060405234801561001057600080fd5b50600436106100625760003560e01c80632568a51a146100675780633013ce291461007c57806342c91605146100ac5780634487d3df146100bd5780636e90013d146101045780638da5cb5b14610117575b600080fd5b61007a61007536600461065a565b61012a565b005b60015461008f906001600160a01b031681565b6040516001600160a01b0390911681526020015b60405180910390f35b6002546040519081526020016100a3565b6100d06100cb3660046106e4565b6104e2565b604080516001600160a01b03909616865260208601949094529284019190915260608301521515608082015260a0016100a3565b61007a6101123660046106fd565b610530565b60005461008f906001600160a01b031681565b6000546001600160a01b031633146101755760405162461bcd60e51b81526020600482015260096024820152682737ba1037bbb732b960b91b60448201526064015b60405180910390fd5b8281146101b65760405162461bcd60e51b815260206004820152600f60248201526e098cadccee8d040dad2e6dac2e8c6d608b1b604482015260640161016c565b6001546040516370a0823160e01b815230600482015286916001600160a01b0316906370a0823190602401602060405180830381865afa1580156101fe573d6000803e3d6000fd5b505050506040513d601f19601f820116820180604052508101906102229190610727565b10156102675760405162461bcd60e51b8152602060048201526014602482015273496e73756666696369656e742062616c616e636560601b604482015260640161016c565b60005b8381101561035f57600083838381811061028657610286610740565b905060200201351115610357576001546001600160a01b031663a9059cbb8686848181106102b6576102b6610740565b90506020020160208101906102cb9190610756565b8585858181106102dd576102dd610740565b6040516001600160e01b031960e087901b1681526001600160a01b03909416600485015260200291909101356024830152506044016020604051808303816000875af1158015610331573d6000803e3d6000fd5b505050506040513d601f19601f820116820180604052508101906103559190610778565b505b60010161026a565b506040805160a0810182526001600160a01b03888116808352602083018981524294840194855260608401888152600160808601818152600280548084018255600082905297517f405787fa12a823e0f2b7631cc41b3ba8828b3321ca811111fa75cd3aa3bb5ace600590990298890180546001600160a01b031916919098161790965592517f405787fa12a823e0f2b7631cc41b3ba8828b3321ca811111fa75cd3aa3bb5acf87015595517f405787fa12a823e0f2b7631cc41b3ba8828b3321ca811111fa75cd3aa3bb5ad0860155517f405787fa12a823e0f2b7631cc41b3ba8828b3321ca811111fa75cd3aa3bb5ad1850155517f405787fa12a823e0f2b7631cc41b3ba8828b3321ca811111fa75cd3aa3bb5ad2909301805460ff1916931515939093179092555490917f43d542a8c779acf01e70c5310257891055c891e50f56d9a561ad345331beb53b91889187916104bc919061079a565b6040805193845260208401929092529082015260600160405180910390a2505050505050565b600281815481106104f257600080fd5b6000918252602090912060059091020180546001820154600283015460038401546004909401546001600160a01b0390931694509092909160ff1685565b6000546001600160a01b031633146105765760405162461bcd60e51b81526020600482015260096024820152682737ba1037bbb732b960b91b604482015260640161016c565b60005460405163a9059cbb60e01b81526001600160a01b039182166004820152602481018390529083169063a9059cbb906044016020604051808303816000875af11580156105c9573d6000803e3d6000fd5b505050506040513d601f19601f820116820180604052508101906105ed9190610778565b505050565b80356001600160a01b038116811461060957600080fd5b919050565b60008083601f84011261062057600080fd5b50813567ffffffffffffffff81111561063857600080fd5b6020830191508360208260051b850101111561065357600080fd5b9250929050565b6000806000806000806080878903121561067357600080fd5b61067c876105f2565b955060208701359450604087013567ffffffffffffffff808211156106a057600080fd5b6106ac8a838b0161060e565b909650945060608901359150808211156106c557600080fd5b506106d289828a0161060e565b979a9699509497509295939492505050565b6000602082840312156106f657600080fd5b5035919050565b6000806040838503121561071057600080fd5b610719836105f2565b946020939093013593505050565b60006020828403121561073957600080fd5b5051919050565b634e487b7160e01b600052603260045260246000fd5b60006020828403121561076857600080fd5b610771826105f2565b9392505050565b60006020828403121561078a57600080fd5b8151801515811461077157600080fd5b818103818111156107bb57634e487b7160e01b600052601160045260246000fd5b9291505056fea26469706673582212206f21d7ba5d7b7f09aa84bc7df82a152fd07c3c2a339ec518539f276f72b5261a64736f6c63430008180033",
  "linkReferences": {},
  "deployedLinkReferences": {}
}